:100000000C9496020C94DD020C94DD020C94DD023B
:100010000C94DD020C94DD020C94DD020C94DD02E4
:100020000C94DD020C94DD020C941C270C94F02738
:100030000C9498210C94DD020C94DD020C94DD02EA
:100040000C94DD020C94DD020C94DD020C94DD02B4
:100050000C94DD020C94EF210C94DD020C94DD0273
:100060000C94DD020C94DD020C94DD020C94DD0294
:100070000C94DD020C94DD020C94DD020C94DD0284
:100080000C94DD020C94DD020C94DD020C94DD0274
:100090000C94DD020C94DD020C94DD020C94DD0264
:1000A0000C94DD020C94DD020C94DD026874747013
:1000B0003A2F2F7371756173686B622E636F6D00D9
:1000C0007965656861772100A900AA00AC00285D08
:1000D0005200295D0151AB00500051004F00AE00AD
:1000E0001601C25CC55CC65CC75CC95CCA5CCB5C03
:1000F0000100C85CCD5CC35CCC5C01000100005C0D
:1001000001000100010001000100010001000100E7
:1001100001000100010001000100010001000100D7
:1001200001000100010001000100010001000100C7
:1001300001000100010001000000000000000000BB
:100140002A2B280000000000000000000000000032
:1001500000000029000000002C1E3420212224343D
:100160002627252E362D3738271E1F20212223240F
:1001700025263333362E37381F0405060708090AAB
:100180000B0C0D0E0F101112131415161718191A47
:100190001B1C1D2F3130232D350405060708090AC5
:1001A0000B0C0D0E0F101112131415161718191A27
:1001B0001B1C1D2F3130354C0000000000000000DA
:1001C000000000000000000000000000000000002F
:1001D0000000000000000000000000007E0F00D4BE
:1001E000FFFFFFC7000000781E0F0500047F3F1FC0
:1001F000643214643214783C1E1E140A052223252E
:100200002628292A2C2D2F3032333536383A3B3DDB
:100210003E4042434547494A4C4E50515355575929
:100220005A5C5E6062646668696B6D6F7173757746
:10023000797B7D7F81838587898A8C8E9092949645
:10024000989A9C9E9FA1A3A5A7A8AAACAEAFB1B354
:10025000B4B6B8B9BBBCBEBFC1C2C3C5C6C7C9CAA4
:10026000CBCCCDCED0D1D2D2D3D4D5D6D7D7D8D966
:10027000D9DADADBDBDBDCDCDCDCDCDDDDDDDDDCC4
:10028000DCDCDCDCDBDBDBDADAD9D9D8D7D7D6D5D6
:10029000D4D3D2D2D1D0CECDCCCBCAC9C7C6C5C398
:1002A000C2C1BFBEBCBBB9B8B6B4B3B1AFAEACAAE5
:1002B000A8A7A5A3A19F9E9C9A98969492908E8C95
:1002C0008A89878583817F7D7B79777573716F6D6F
:1002D0006B6968666462605E5C5A59575553515049
:1002E0004E4C4A4947454342403E3D3B3A383635FD
:1002F0003332302F2D2C2A292826252322FFAA7FAE
:100300005540000101010101010101010202020247
:1003100002020202020303030303030303040404AF
:100320000404040405050505050606060606070778
:1003300007070708080808090909090A0A0A0B0B30
:100340000B0C0C0C0D0D0D0E0E0E0F0F0F101011CF
:100350001111121213131414151516161717181855
:1003600019191A1A1B1B1C1D1D1E1E1F20202122BD
:1003700022232424252626272829292A2B2C2D2D03
:100380002E2F30313232333435363738393A3B3C20
:100390003D3E3F404142434445464748494A4C4D13
:1003A0004E4F50515354555658595A5B5D5E5F61DC
:1003B0006264656668696B6C6D6F7072737577786F
:1003C0007A7B7D7E8082838587888A8C8E8F9193CD
:1003D0009596989A9C9EA0A2A3A5A7A9ABADAFB1F4
:1003E000B3B5B7BABCBEC0C2C4C6C9CBCDCFD1D4D9
:1003F000D6D8DBDDDFE2E4E7E9EBEEF0F3F5F8FA7F
:10040000FDFF0E035900650065006800610077007C
:100410000000120373007100750061007300680032
:100420006B00620000000403090409025B00030181
:1004300000A0FA09040000010301010009211101D3
:1004400000012240000705810308000A0904010099
:10045000020300000009211101000122220007050A
:1004600082032000010705030320000109040200A4
:1004700001030000000921110100012232000705DB
:10048000840320000A120110010000000851535893
:10049000540001010200010660FF0961A101096227
:1004A000150026FF009520750881020963150026B6
:1004B000FF00952075089102C005010980A1018502
:1004C0000319012AB700150126B70095017510819F
:1004D00000C0050C0901A101850419012AA002151B
:1004E0000126A002950175108100C005010906A131
:1004F00001050719E029E715002501950875018117
:10050000029501750881010507190029FF150026CC
:10051000FF00950675088100050819012905950554
:1005200075019102950175039101C00011241FBE50
:10053000CFEFDAE0DEBFCDBF04B603FE27C0809167
:10054000C5029091C602A091C702B091C80287303F
:10055000904BA740B04BD1F41092C5021092C60246
:100560001092C7021092C80214BE84B7877F84BF5E
:100570000FB6F894A8958091600088618093600020
:10058000109260000FBEE0E0F8E3099511E0A0E0F2
:10059000B1E0EAECF6E502C005900D92AE3DB10780
:1005A000D9F722E0AEEDB1E001C01D92A53CB20743
:1005B000E1F70E94DA230C94142B0C9400008111B3
:1005C00006C08AEA611101C089EA0C94A117813042
:1005D00029F481E56111F9CF82E5F7CF08958832DA
:1005E0002DE5920729F089329D4559F081E0089563
:1005F000FB0182818823D1F380EC90E00E945B05AF
:10060000F5CFFB018281882389F38CEA90E0F6CF55
:1006100081E008950C94EF0208950C940C031F934D
:10062000CF93DF9300D000D00F92CDB7DEB74983D0
:100630005A836B833091300289819A8131111DC0B8
:100640006623B9F02223A9F00E94FD1E182F682FFF
:1006500089819A810E94A91E69817A81812F0F90D8
:100660000F900F900F900F90DF91CF911F910C94EE
:10067000D1120E94D51E182FEFCF0E94FD1E698156
:100680007A81EDCFFC01262F4081518162817381F7
:1006900084810C940F03CF93DF93EC0160E00E9400
:1006A0004203BE01DF91CF910C940D038F929F9274
:1006B000AF92BF92CF92DF92EF92FF920F931F9370
:1006C0006B017C0181E090E0A0E0B0E04C015D01B5
:1006D00004C0880C991CAA1CBB1C4A95D2F7B50112
:1006E000A4014C015D0104C0880C991CAA1CBB1C10
:1006F0002A95D2F7482959296A297B2904C0880FED
:10070000991FAA1FBB1F0A95D2F78A019B010C21D2
:100710001D212E213F21041715072607370789F4CD
:100720008C299D29AE29BF29BC01CD011F910F91B4
:10073000FF90EF90DF90CF90BF90AF909F908F9001
:10074000089580959095A095B0958C219D21AE211E
:10075000BF21EACF0F93382F262F6091730270913B
:1007600074028091750290917602042F432F0E94AB
:1007700056030F910C94E71D0E942B220E944920E2
:10078000811102C00E94ED200C9460070C94630755
:1007900008950E94131A0E94C8032FEF84E39CE07F
:1007A000215080409040E1F700C000000C941322DB
:1007B0000F931F93CF93DF93EC0161E00E944203FC
:1007C0008C01BE010E94D810882389F1BE01C801A6
:1007D0000E940A03882359F1BE01C8010E9408142F
:1007E000882329F1BE01C8010E945A148823F9F018
:1007F000BE01C8010E947D158823C9F0BE01C80151
:100800000E948D0F882399F08A81882339F0011581
:100810008CE5180751F00E3D1C4579F0CE01DF91B3
:10082000CF911F910F910C9408030E94C90380E09F
:10083000DF91CF911F910F9108950E94ED20F7CF86
:10084000DF92EF92FF920F931F93CF93DF93E82FE6
:10085000F0E0E85CFE4FD490282F2695269526954B
:1008600030E0F901E852FE4F0491877010E0082E45
:1008700002C0159507950A94E2F701701127F90156
:10088000E853FE4FE490F12C082E02C0F594E79453
:100890000A94E2F791E0E922FF24F901E854FE4FBF
:1008A000C491D0E002C0D595C7958A95E2F7C17092
:1008B000DD270115110519F081EE0E941C17E114C6
:1008C000F10419F086EE0E941C178D2D0E94A117CD
:1008D000EF2819F086EE0E946217012B19F081EEC5
:1008E0000E946217CD2B51F08CE2DF91CF911F91C6
:1008F0000F91FF90EF90DF900C94A117DF91CF91B3
:100900001F910F91FF90EF90DF900895EF92FF926B
:100910000F931F93CF93DF93EC01162F0AE088818A
:10092000882309F454C0813009F04EC08981813098
:1009300099F47E0122E0E20EF11C8A810E94A11747
:10094000E7012196812F815050F3EFE9FFE03197C5
:10095000F1F700C00000F7CF823041F47E0182E061
:10096000E80EF11C8A810E941C17EACF833041F403
:100970007E01E2E0EE0EF11C8A810E946217E0CF58
:10098000843011F02196DDCF2A81229690E080E01C
:10099000AE014F5F5F4F2053330B2A30310548F0D3
:1009A000019778F2EFE9FFE03197F1F700C000001E
:1009B000F7CF089FB001099F700D1124C901860F60
:1009C000971F2981EA01E4CF0E942004BACFDF916A
:1009D000CF911F910F91FF90EF90089560E00C94DC
:1009E0008604EF92FF920F931F93CF93DF938C01B6
:1009F000F62E8AE0E82EF8018491882309F454C089
:100A0000813009F04DC0E8012196FE0184918130CA
:100A100091F42196FE0184910E94A1178E010F5F2F
:100A20001F4F8F2D815038F3EFE9FFE03197F1F739
:100A300000C00000F7CF823039F4E8012296FE01B1
:100A400084910E941C17EACF833039F4E801229682
:100A5000FE0184910E946217E1CF8430F9F6E8012B
:100A60002296FE01249190E080E0FE013196205311
:100A7000330B2A30310548F0019780F2EFE9FFE0AF
:100A80003197F1F700C00000F7CFE89EA001E99E82
:100A9000500D1124C901840F951F2491EF01E5CF5A
:100AA0000E942004E801BACFDF91CF911F910F91EE
:100AB000FF90EF90089560E00C94F10408950C9479
:100AC0005E0581E008950C946105CF93C82F0E94C4
:100AD0005F058C2FCF910C94630590E080E0089522
:100AE0000895FC01EE0FFF1FE851FE4F8591949190
:100AF0000895CF93DF930E94D1120E948506EC01E6
:100B0000811520E5920708F041C0811530E4930774
:100B100008F0B4C0803E910518F5803C910508F0BE
:100B20009DC0883A910570F4853A910508F08EC011
:100B300081309105F9F00097E9F00497D8F4D0E0FE
:100B4000C0E018C08F3B9105D0F7C85AD0E0CC0F59
:100B5000DD1FCC5DDE4F0990D881C02DD4640AC062
:100B60008115904258F4C11581E0D80718F4C83EA9
:100B7000D10528F7CE01DF91CF910895C11590E3FB
:100B8000D90708F071C0CE019F706AC0811525E5B4
:100B9000920758F5811534E5930708F09EC081153A
:100BA00042E5940750F4C11581E5D80708F469C0FF
:100BB000DC2FCC27C16FD06ADDCF982F9695969504
:100BC0009E0123703327C115D34508F077C0C1E0DB
:100BD000D0E002C0CC0FDD1F2A95E2F720E2929F01
:100BE000C0011124C82BD92B67C0C11589E5D807CE
:100BF000A8F4C11598E5D90708F074C0C11526E519
:100C0000D20708F09CCF8C2F0E941C07C82FD0E081
:100C1000DC2FCC27CC27DF71D062ACCFC1153AE5F1
:100C2000D30708F464C0CE0190568115904208F0B5
:100C300086CF8D2F8F710E941C0790E0982F8827F8
:100C400088279F719C012C2BE901E6CFC55AD0E083
:100C5000CE5ADE4FC881D0E0D0648CCF805C910941
:100C60000E947105EC0186CFCE019927D3FF03C006
:100C7000EC01D86C7FCFEC01D06C7CCFDF70D06AF8
:100C800079CFCE01E4E096958795EA95E1F78370F8
:100C90002C2F26952695237090E2299F90011124F0
:100CA000382B8C2F8370C1E0D0E002C0CC0FDD1F49
:100CB0008A95E2F7C22BD32BDC685CCFC1E0D0E091
:100CC00002C0CC0FDD1F2A95E2F730E2939FC001EE
:100CD0001124C82BD92BDA684DCFD82FCC27C46F5D
:100CE000D06A48CFDC2FCC27C06FD06A43CF8C2F7F
:100CF0008F700E941C0734E0D695C7953A95E1F7AE
:100D0000CF709C2FEC01D06935CF82389105B1F1BD
:100D1000B0F48133910509F475C048F48932910526
:100D200009F469C08A32910509F473C008958533C6
:100D3000910509F459C08933910501F10895833E65
:100D40009105A9F138F4803E9105F9F0823E9105B4
:100D500049F10895863E9105A9F1873E9105C9F1B3
:100D6000843E910519F52091B70221FF1FC08091A3
:100D7000B60284FD14C087EE90E008952091B6027B
:100D80002370A1F080EE90E008952091B60220FD3E
:100D900047C03091B70230FF09C024FF44C090E043
:100DA00080E004C02091B60222FDF7CF0895209183
:100DB000B60222FD3BC03091B70230FDE3CF24FFE5
:100DC000F5CFEDCF2091B60223FFF0CF24FDE7CF82
:100DD000D2CF2091B60223FD2CC03091B70231FF53
:100DE000EECF84EE90E008952091B60225FFDECF8D
:100DF00089E290E008952091B60225FFD7CF85E3E0
:100E000090E008952091B60226FFD0CF8AE290E0CC
:100E100008952091B60226FFC9CF81E390E008959E
:100E200089E390E0089583EE90E0089582EE90E0EB
:100E3000089586EE90E008959091B60292FF06C064
:100E4000282F28712830F9F4877F846093FF06C02B
:100E5000282F28712831F1F4877E84612091B70210
:100E600020FF06C0382F38713830D9F4877F816071
:100E700021FF06C0282F28712831D1F4877E816197
:100E800094FD877E0895282F24712430F9F68B7FF6
:100E90008860DCCF282F2471243101F78B7E886194
:100EA000DDCF382F3171313019F78E7F8860E0CF78
:100EB000282F2171213121F78E7E8861E1CF08959D
:100EC0000C945F0708950C946207E82FF0E0EE0F92
:100ED000FF1FEA56FD4F8081918108950895A5E591
:100EE000B1E041E050E08D918F3F91F0E82FE29525
:100EF000EF70F0E061A18F709A0101C0220F8A9516
:100F0000EAF7922F9095962391A382A1822B82A338
:100F100081E0A336B80739F7109295021092940237
:100F2000109297021092960281E00E94E0070C94C2
:100F3000BC03CF93DF93A5E5B1E070E060E050E043
:100F400040E0C1E0D0E02D912F3FB9F0E22FE295D3
:100F5000EF70F0E080A190E02F7002C0959587952A
:100F60002A95E2F780FD29C0CE01062E02C0880F27
:100F7000991F0A94E2F7482B592B6F5F7F4F6E3011
:100F8000710509F78091940290919502C0E0841751
:100F9000950729F05093950240939402C1E02C2FBD
:100FA00041E066E972E084E992E00E94E1070E9474
:100FB000C6038C2FDF91CF91089590E080E0DBCFC6
:100FC0000895FF920F931F93CF93DF93F82E092F6D
:100FD000162FD72FC42F222349F081E08093E201FE
:100FE0000E94C8219093E1018093E0018091E20189
:100FF0008823A1F08091E0019091E1010E94E0211D
:10100000069760F0EF2DF02FA12FBD2F90E080E02C
:10101000D0E08C179D0744F01092E201DF91CF9150
:101020001F910F91FF900895219131912D933D9340
:101030000196EFCFEF92FF920F931F93CF93DF9321
:10104000EB01E82FD11110C0442321F0F0E0EE5F56
:10105000FC4FE4916E2F7E2F8E2FDF91CF911F9149
:101060000F91FF90EF9008950D2F10E0282F30E0A2
:10107000442329F02E5F3C4FF901249130E0F6E043
:10108000CF9FC0011124EFEFF0E0BF010E94BC2907
:10109000AB018C2F90E0880F991FA5E5A49FB001AC
:1010A000A59F700D1124861B970B982F990F980FF1
:1010B000BF01601B710B629FD001639FB00D729FD7
:1010C000B00D11248B2F9D9FB0011124672F77271E
:1010D000EF01C61BD70BBE01629FE001639FD00DDD
:1010E000729FD00D11247F01E91AF108E09EB00132
:1010F000E19E700DF09E700D1124672F7727E61B7F
:10110000F70BE29F8001E39F100DF29F100D112459
:10111000E12F722F4230510599F048F441155105E5
:1011200069F04130510581F0EB2F8D2F07C044301D
:10113000510569F080F046305105B1F76E2F8DCF23
:10114000E22F7B2F812FFACFE22F7D2FF7CFEB2FCE
:10115000822F712FF3CF7B2F822FED2FEFCF41E026
:101160000C941A0808950C94AF08CF93DF93762F50
:10117000E901682F842F0E94B308798368838A83EA
:10118000DF91CF91089580919802982F9E7F29F446
:10119000817082608093980208958635E8F38170AB
:1011A0008465F8CF88E090E00C94B52ACF92DF9266
:1011B000EF92FF926B017C010E94C308B701A60168
:1011C00088E090E0FF90EF90DF90CF900C94D32ACE
:1011D000609198027091990280919A0290919B027D
:1011E0000C94D608E8E9F2E083E0808311828FEF67
:1011F00082838383148260817181828193810C94C4
:10120000D6088091980280FF02C08695089580E0FC
:10121000089590919C02933018F49F5F90939C02E4
:10122000882351F0609198027091990280919A02FE
:1012300090919B020C94D608089581E00C940909C2
:1012400090919C02992319F0915090939C028823CD
:1012500051F0609198027091990280919A02909158
:101260009B020C94D608089581E00C94200980918B
:101270009C02089580939C02662351F0609198022D
:101280007091990280919A0290919B020C94D608D9
:10129000089560E00C943A09809199020895809134
:1012A0009A02089580919B02089570E00C94FD0FBE
:1012B000609108018091980280FF0AC08091070127
:1012C00023E0829FC001112483569D4F0C94550941
:1012D0008091090190910A0123E0829FF00111247D
:1012E000E356FD4F891750F71182108212828F5FEB
:1012F0003396F8CF9091980290FF14C09091090115
:1013000020910A0133E0939FF0011124E356FD4F31
:10131000921710F00C9458098183608342839F5F79
:101320003396F6CF0895CF93DF9300D00F92CDB7C9
:10133000DEB79091980290FF0AC09E012F5F3F4F49
:101340000E94B5084B8169818A810E947A090F90B9
:101350000F900F90DF91CF910895CF93DF93EC0121
:10136000EC81F0E0E350FE4F4491E8E9F2E0628165
:1013700081810E9493098C818F5F8C83DF91CF9153
:101380000895CF93DF93EC01E8E9F2E043816281B5
:101390008C810E9493098C818F5F8C83DF91CF9128
:1013A00008950F931F93CF93DF9300D00F92CDB783
:1013B000DEB78C018091E30181110AC09E012F5F8D
:1013C0003F4F4FEF6FEF0E94B5088A818093E30192
:1013D000F8016481613069F08091E30140E06623A7
:1013E00061F040E0623011F44091E30180E060E0A0
:1013F00004C06091E30140E080E00E947A09F801B6
:10140000848190E0019663E070E00E94D02984839B
:101410000F900F900F90DF91CF911F910F91089532
:10142000AF92BF92CF92DF92EF92FF920F931F93F2
:10143000CF93DF9300D00F92CDB7DEB7182FF62EE3
:10144000042FE22E9091980290FF29C0E92FE69593
:10145000AE2FB0E0AD59BE4F8C91809312029E7FAB
:10146000923059F59E012F5F3F4F812F0E94B508A2
:101470004B8169818A810E947A0910939902F092C6
:101480009A0200939B02EE2051F0609198027091B5
:10149000990280919A0290919B020E94D6080F9027
:1014A0000F900F90DF91CF911F910F91FF90EF90D0
:1014B000DF90CF90BF90AF900895823019F40091E3
:1014C0009B02DBCF863019F410919902D6CF893078
:1014D000D9F3893191F6E9518E2F8170D82EE69596
:1014E000F0E0E350FD4FA590B490C12CBB24609177
:1014F0000B01C61618F00E945809BFCF2C2D30E002
:10150000A29EC001A39E900DB29E900D112470E08A
:101510000E94BC29812FD11013C0860F4091090170
:10152000420F532F511D9A01220F331F240F351FD5
:1015300023563D4F402F6F2D0E94B508C394D7CF3F
:10154000861BECCFE8E9F2E09181282F438162818C
:1015500088E0890F0C94100A81E00C94A20AE8E953
:10156000F2E09181282F4381628188EF890F0C94EA
:10157000100A81E00C94AF0AE8E9F2E0628128E009
:10158000620F08F46FEF282F438181810C94100AB9
:1015900081E00C94BC0AE8E9F2E0628128E0621B79
:1015A00008F460E0282F438181810C94100A81E0C7
:1015B0000C94CB0AE8E9F2E0438128E0420F08F4FA
:1015C0004FEF282F628181810C94100A81E00C94E6
:1015D000DA0AE8E9F2E0438128E0421B08F440E03F
:1015E000282F628181810C94100A81E00C94E90A11
:1015F00020E00C94100AEF92FF921F93CF93DF9399
:10160000EC0110E0EE24EA94F12C60910B01161726
:1016100070F00E9458099A818C8190FF27C08F5FDB
:101620008C83DF91CF911F91FF90EF9008952091CF
:101630000901422F410F5527551FCA019A01220F58
:10164000331F280F391F23563D4F70E0C7010E94FA
:10165000D029962F8C8140919B0260919A02199F0C
:10166000800D11240E94B5081F5FCFCF8150D8CFC5
:10167000AF92BF92CF92DF92EF92FF920F931F93A0
:10168000CF93DF93FC0182810FEF80FF01E010E038
:1016900047E0A42E80910B011817C8F00E9458094A
:1016A0008091E501013009F055C0811102C080919F
:1016B0000B0181508093E501DF91CF911F910F9134
:1016C000FF90EF90DF90CF90BF90AF900895C091C2
:1016D0000901C12ED12CCC0DDD2DD11DCE01880FDD
:1016E000991FC80FD91FC356DD4F198218821A825D
:1016F00034E0E32EF12CB12C8091E5018B0D883084
:101700001CF16A2D0E94AE29892F082E000C990B1E
:10171000C816D90691F480919B028E9DA0018F9DE1
:10172000500D112455954795559547959E0160910B
:101730009A02809199020E94B508B00EF1E0EF1A6A
:10174000F108D1F61F5FA6CF87FFDFCF90910B0185
:10175000890FDBCF90E0019660910B0170E00E9451
:10176000D029A8CF0F931F93CF93DF9380910901C6
:1017700090910A0123E0829FF0011124E356FD4F6E
:10178000891740F1C0E0D3E060910B01C61740F12A
:101790000E945809209105018091E401820F8093F5
:1017A000E40190910601920F90930601191654F4EA
:1017B000082E000C990B40910B014150550B8417DA
:1017C00095071CF0219520930501DF91CF911F9182
:1017D0000F9108951182108212828F5F3396D0CFBD
:1017E0000C2F10E070E0C8010E94D029209109015F
:1017F000820F482F50E02091E401022E000C330BA1
:1018000002171307BCF020910601022E000C330BC7
:10181000201731077CF08D9F9001112423563D4FF6
:1018200040919B0260919A02809199020E94B508B2
:10183000CF5FAACFFA01EE0FFF1FE40FF51FE356AB
:10184000FD4F118210821282F3CF8F929F92AF923E
:10185000BF92CF92DF92EF92FF920F931F93CF939D
:10186000DF93EC014C81042F10E09801D8010E9415
:101870001B2A9B01AC010E94312A4B015C01E0E272
:10188000F0E0E01BF10BA5E5B0E0AC019B010E948C
:10189000312A6B017C019F01DF010E94132A9B0109
:1018A000AC010E943C2A9B01AC01280D391D4A1D48
:1018B0005B1DC701B6010E94E429F22E822F90E041
:1018C00039E23F1560F143E0249F900111243595E2
:1018D0002795122F109500E085E5E82EEF188091EE
:1018E0000B01081758F10E9458099C8181E0992347
:1018F00019F0903219F48FEF809304018091040164
:10190000890F8C83DF91CF911F910F91FF90EF9002
:10191000DF90CF90BF90AF909F908F90089525E576
:1019200030E0B901681B790B9B01220F331F260F92
:10193000371F37FFCCCF2F5F3F4FC9CF8E2D01FD13
:101940008F2D20910901622F600F7727771F9B0150
:10195000220F331F260F371F23563D4F412F609113
:101960009A020E94B5080F5FBACF0F931F93CF93CF
:10197000DF93EC0110E000E090910B01901711064D
:1019800009F06CF40E9458098C8190E001968170F6
:1019900099278C83DF91CF911F910F91089520910A
:1019A0000901A801420F511D9A01220F331F240F74
:1019B000351F23563D4F4C8160919A0280919902C8
:1019C00096959017110651F04CF0442349F0409140
:1019D0009B020E94B5080F5F1F4FCECF4423B9F37F
:1019E00040E0F7CF4F925F926F927F928F929F92DB
:1019F000AF92BF92CF92DF92EF92FF920F931F931D
:101A0000CF93DF93FC016280448081E08483EDEF1B
:101A1000F1E07490ECE7F2E0E491812C75E0972E10
:101A2000F2E0CF2EDD24D394AA24AA94B12C55241D
:101A30005A94E7190E2F10E080910B01881690F050
:101A4000DF91CF911F910F91FF90EF90DF90CF909A
:101A5000BF90AF909F908F907F906F905F904F90CE
:101A60000C945809E82CF12C82E0861568F09E9CB5
:101A7000F0019F9CF00D1124EA51FE4F80919902D4
:101A8000808380919A028183411023C09E9CF00143
:101A90009F9CF00D1124EA51FE4F13821282209177
:101AA0000901C701820F911D9C01220F331F280FCE
:101AB000391F23563D4F9E9CF0019F9CF00D112431
:101AC000EA51FE4F4281618180810E94B508839472
:101AD000B3CF9E9CE0019F9CD00D1124CA51DE4FD4
:101AE0008B818823E9F081508B83859DC00111246F
:101AF0006C8170E00E94BC29FB01FF27E350FE4F80
:101B00008491E82FE719E59DC0011124B8010E94D6
:101B1000BC2980919B02689FB00111247A83BFCFBA
:101B20000E94902A20919B02269521582C9DA0016D
:101B30002D9D500D1124452F5527841795070CF026
:101B4000AECF82E0861588F40E94902AB5010E94EB
:101B5000D02988830E94902A20919A022695622F8C
:101B600070E00E94D029280F29839E9CF0019F9C41
:101B7000F00D1124EA51FE4F128280919B02893CA4
:101B800058F088EC9E9CF0019F9CF00D1124EA51C6
:101B9000FE4F8483838383CF8431A0F784E1F2CF27
:101BA000E8E9F2E080818E7F8083608171818281AB
:101BB00093810E94D608109213022FEF80E792E0E3
:101BC000215080409040E1F700C000000C9458097B
:101BD000E8E9F2E080818E7F8083109213022FEF7C
:101BE00080E792E0215080409040E1F700C0000083
:101BF0000C945809109213028091100281110AC0AE
:101C000081E08093100280919802817080930F028E
:101C10000C94E80D089560919802669570E04BE091
:101C200050E08CE091E00E94A02A892B19F481E019
:101C3000809313020E94C82190930A0280930902A4
:101C400008959091980290FF35C09170811128C03D
:101C5000926090939802662351F06091980270917F
:101C6000990280919A0290919B020E94D6086091FD
:101C70009802669570E04BE050E08CE091E00E94A5
:101C8000A02A892BA1F01092130281E080930C020C
:101C900040919B0260919A02809199020C94F80AFB
:101CA0008B3210F09465D5CF880F982BD2CF0E943D
:101CB0000B0EEBCF0895682F90919802969581E0D6
:101CC000890F8B3208F081E00C94210E81E00C9496
:101CD0005B0E682F9091980296958FEF890F09F40B
:101CE0008AE20C94210E81E00C94690E61E00C9460
:101CF000210EE8E9F2E080818160808386950C9472
:101D0000760E8091980280FD0C94D00D0C94790E83
:101D100060E00C94210E8091110281112EC00E946E
:101D20004920811104C00E94ED200E94F2080E9407
:101D3000D208609398027093990280939A029093CC
:101D40009B026E7F61F40E94F2080E94D2086093A9
:101D500098027093990280939A0290939B020E943A
:101D6000C308109213028091980280FF03C08695E9
:101D70000E94880E81E0809311020895E8E9F2E064
:101D800080818160808386950C94880E1092100269
:101D900080910F0281110E94BE0E0C940B0E0F93C6
:101DA0001F93CF93DF9380911302882309F496C089
:101DB00080911202E0919802E695E81BE0930B02F5
:101DC000823091F5F0E0E750FE4FE491CE2FD0E065
:101DD0000DEA19E080910C02882361F010920C0248
:101DE0000E94C82190930A028093090210920E0269
:101DF00010920D020E94C821E0910902F0910A029E
:101E00008E1B9F0B8F3F9F4708F068C0EC0FFD1F94
:101E1000F0930A02E093090289E092E0F801DF9171
:101E2000CF911F910F910994863049F4F0E0EA5068
:101E3000FE4FE491CE2FD0E001EC19E0CBCF8930FA
:101E400051F4E695F0E0ED50FE4FE491CE2FD0E056
:101E50000BEF1AE0BFCF8F3051F4E695F0E0E05180
:101E6000FE4FE491CE2FD0E008E31BE0B3CF8531E5
:101E700049F4F0E0E351FE4FE491CE2FD0E002EBC5
:101E80001BE0A8CFC8E2D0E005E21CE0883109F4ED
:101E9000A1CF833239F4EBEEF1E0C591D49101ED9D
:101EA00019E098CFC4EFD1E005EB1CE0843209F4CF
:101EB00091CFC0EDD7E002EB18E0853209F08ACF70
:101EC0008E2F63E00E94A229E92FF0E0E851FE4F37
:101ED000E491CE2FD0E002EF1CE07CCFDF91CF91D8
:101EE0001F910F910895FA01811101C0FB0109941E
:101EF000CF93DF93C82FD62F0E9401098C1740F093
:101F00000E9401098D1720F4DF91CF910C94660E89
:101F10008C2FDF91CF910C94760E0F931F93CF935C
:101F20008C01FB01C281CC2309F465C00E94921F81
:101F30008272F801E25CFC45E431F10538F4EA5EB6
:101F4000F44D0C94062A0E94810EC0E08C2FCF9194
:101F50001F910F91089543E75EE066E67EE00E94E0
:101F6000730FF3CF46E65EE063E77EE0F8CF49EB20
:101F70005AE06CEA7AE0F3CF4CEA5AE069EB7AE097
:101F8000EECF47ED5AE068EC7AE0E9CF48EC5AE052
:101F900067ED7AE0E4CF45EF5AE066EE7AE0DFCF16
:101FA00046EE5AE065EF7AE0DACF44E359E06DE1BE
:101FB00079E0D5CF4DE159E064E379E0D0CF81E01D
:101FC0000E94760EC2CF65E082E00E94780FBDCFFE
:101FD00068E086E0FACF6EE089E0F7CF64E18FE059
:101FE000F4CF67E185E1F1CF88E1EACF62E289E1F0
:101FF000ECCF83E2E5CFC1E0A9CF229A45B14B7F78
:1020000055B15460EFB7F8949B01220F331F260F90
:10201000371F280F391F2817390741F4EFBF8FE505
:1020200094E00197F1F700C000000895DC016D9184
:10203000CD0178E055B9000000C067FF45B9660FD3
:10204000000000C000C000C045B900C07A9591F7FB
:10205000E2CF0C94DF025198599A5098589A89B15E
:1020600086958170489905C090E0892B809316026F
:10207000089592E0FACFE0911602EE0FEE0FE09392
:10208000160229B121FB882780F9489937C020E042
:10209000822BE82BE0931602EF70F0E0E257FE4F40
:1020A000808190911502890F8093150220E0843081
:1020B00054F0809114028F5F8093140260E080E0FE
:1020C0000E94291021E0809115028D3F54F48091E7
:1020D000140281508093140261E080E00E94291074
:1020E00021E080911502082E000C990B64E070E04D
:1020F0000E94D02980931502822F089522E030E0BB
:10210000C7CF82E290E00E94AD2A813289F483E257
:1021100090E00E94AD2A853059F484E290E00E945C
:10212000AD2A91E0863009F090E0892F8170089502
:1021300080E0FCCFCF93C82F6FEF811161E282E284
:1021400090E00E94C12A6FEFC11165E083E290E048
:102150000E94C12A6FEFC11166E084E290E0CF9146
:102160000C94C12A80E00E949A100C944320089598
:1021700085E290E00E94AD2A682F70E090E080E058
:10218000089585E290E00C94C12A0E94B7100E9445
:10219000811081110CC060E070E0CB010E94C11081
:1021A0000E945C120E94351381E00C949A100895ED
:1021B000CF93FB01C281CC2309F19C0122513F4501
:1021C0002031310520F582510E944513C0E08C2F4B
:1021D000CF91089581E00E940D1E43E062E081E00E
:1021E0000E94AA03F3CF81E00E942E1E43E062E02A
:1021F00081E00E94AA03EBCF82E0F6CF8031FFE5B9
:102200009F0789F381319F45B9F3C1E0E0CF803169
:10221000EFE59E07F9F281319F45C9F682E0DBCFF9
:102220002FEFFC0120830895CF93DF93EC01888189
:102230008138A9F028F4803871F0DF91CF910895AA
:10224000823881F08338C9F70E944C0989830E9443
:102250004F098A83F2CF0E9452098983EECF0E94F0
:102260000109FBCF0E943709F8CFCF93DF93EC0130
:1022700088818138E1F028F4803869F0DF91CF91CE
:102280000895823811F18338C9F70E945209482F06
:102290006A81898108C0D9810E944F09C82F0E9494
:1022A0004C094D2F6C2FDF91CF910C94F80A898146
:1022B0000E94880E8981811104C0DF91CF910C9416
:1022C000E80DDF91CF910C94BE0E8981DF91CF9103
:1022D0000C9449091F93CF93DF93EC01162FDC0177
:1022E000ED91CD01E150E33108F0A4C0F0E0E65DEE
:1022F000F44D0C94062A198289E08A83612FCE015D
:10230000DF91CF911F910C94CF228981823069F0A7
:10231000833071F08130A9F40E94D4210E940C2AEC
:102320006A837B838C839D83E9CF0E94B810F6CFAC
:1023300080E00E9465079827892798279B838A83D6
:10234000DDCF612FCE010E941011D8CF898182305C
:10235000C1F76A817B818C819D810E940C2A0E9439
:10236000C110CCCF4B816A8189810E942E1298279F
:10237000892798279D838C83C1CF2C813D8132276B
:10238000232732274B816A8189810E944712B6CF69
:102390000E945C12B3CF0E943511B0CF0E9414117D
:1023A000ADCF0E94E808AACF0E94DE128983A6CF93
:1023B0000E94E0129827892798279A8389839ECFC5
:1023C0006B8170E089819A81AE014C5F5F4F9827E5
:1023D000892798270E94E31291CF6B8170E0898151
:1023E0009A81AE014C5F5F4F9827892798270E94FA
:1023F0000A1384CF0E94351381CF0E941D12D6CFBD
:102400006B8170E089819A81AE014C5F5F4F9827A4
:10241000892798270E94831271CF6B8170E0898190
:102420009A81AE014C5F5F4F9827892798270E94B9
:10243000A81264CF8FEF888361CF84E008959CE178
:1024400050E0440F551F699F400D511D1124899F75
:10245000400D511D1124CA01869608950F931F93B4
:10246000CF93DF930E941F128C010E94AD2AC82FC8
:10247000D0E0DC2FCC27C80101960E94AD2A9E0136
:10248000282BC901DF91CF911F910F9108950F93D0
:102490001F93CF93DF93122F032F0E941F12EC0183
:1024A000602F0E94C12A612FCE010196DF91CF914A
:1024B0001F910F910C94C12AEF92FF920F931F93DB
:1024C000CF93DF9388ECE82E80E0F82ED0E08701F0
:1024D000C0E0F801259134914C2F60E08D2F0E94CF
:1024E00047120E5F1F4FCF5FCE3099F78CE1E80E99
:1024F000F11CDF5FD43059F7DF91CF911F910F911D
:10250000FF90EF900895EF92FF920F931F93CF9358
:10251000DF93EC018A017C01E60EF71ECE01869660
:10252000CE15DF0539F4DF91CF911F910F91FF9008
:10253000EF900895C037D10540F40E94AD2AF8010C
:1025400080830F5F1F4F2196E9CFF8011082F9CFEA
:10255000CF92DF92EF92FF920F931F93CF93DF936F
:102560007C016A018C01060F171FEC01CE018696D3
:10257000C017D10749F4DF91CF911F910F91FF90C0
:10258000EF90DF90CF900895C037D10540F4FE0161
:10259000EE19FF09EC0DFD1D60810E94C12A2196F4
:1025A000E5CF462F843038F4711105C06E3018F431
:1025B00060E00C942E1290E080E0089580E1089590
:1025C0008AE693E00895EF92FF920F931F93CF93C3
:1025D000DF93EC018A017C01E60EF71ECE018A56DC
:1025E0009F4FCE15DF0539F4DF91CF911F910F91E9
:1025F000FF90EF900895CA3623E0D20740F40E947E
:10260000AD2AF80180830F5F1F4F2196E7CFF801B5
:102610001082F9CFCF92DF92EF92FF920F931F9328
:10262000CF93DF937C016A018C01060F171FEC0129
:10263000CE018A569F4FC017D10749F4DF91CF9141
:102640001F910F91FF90EF90DF90CF900895CA36C1
:1026500023E0D20740F4FE01EE19FF09EC0DFD1D49
:1026600060810E94C12A2196E3CFCF93DF93C6E910
:10267000D0E060E0CE010E94C12A2196C11584E01D
:10268000D807B9F7DF91CF910895DF92EF92FF92CB
:102690000F931F93CF93DF9300D000D0CDB7DEB759
:1026A000F82E8FE08F1540F08FEF93E00E94AD2A57
:1026B00006E910E08823C1F00F900F900F900F9063
:1026C000DF91CF911F910F91FF90EF90DF900895D0
:1026D000011584E0180781F3C8010E94AD2A811119
:1026E00001C0FA940F5F1F4FF110F2CF19821A82C6
:1026F0001B821C82DD24D39478018FEFE81AF80A3C
:10270000C8010E94AD2A89831A828823A9F29FEF0B
:10271000980F933078F48A83D9820E5F1F4FC701D8
:102720000E94AD2A8B83882339F2CE0101960E9444
:10273000EE04E2CF8701F9CF0F931F93CF93DF937E
:10274000C42FD22FFC0182818823C9F04093190243
:102750000E94C821909318028093170280E28C0F88
:10276000883008F050C0C77081E001C0880FCA955A
:10277000EAF7DF91CF911F910F910C94A917109157
:102780001902141335C080911702909118020E940B
:10279000E021883C910560F5C0E2CD0F1D17B9F02E
:1027A00080E2810F883040F4177081E001C0880F0B
:1027B0001A95EAF70E94B017C83048F481E09D2FBF
:1027C000977001C0880F9A95EAF70E94A917802F89
:1027D0000E94A117C830B8F4D77081E001C0880FFB
:1027E000DA95EAF7DF91CF911F910F910C94B01712
:1027F00080E28C0F883038F4C77081E001C0880F08
:10280000CA95EAF7EFCFDF91CF911F910F9108950D
:102810000F939C01CB01233F4CE5340759F1A8F4F9
:10282000283DFCE53F0701F1293D4CE53407D1F196
:10283000273D3C4591F406E221EE41EE67ED7CE553
:102840000E949C1380E00F910895253FFCE53F070F
:10285000E9F0B0F0263F3C45F9F0FC018281882385
:1028600039F110921902EFCF07E225EE45EE68ED3F
:102870007CE5E6CF06E221EE40EE63EF7CE5E0CFBB
:1028800007E225EE44EE64EF7CE5DACF06E221EEC6
:1028900042EE65EF7CE5D4CF07E225EE46EE66EF2B
:1028A0007CE5CECF08E221E045EE69ED7CE5C8CFBE
:1028B00081E0C9CFCF93DF93EC01FB0182818823B4
:1028C00009F419C1C230FCE5DF07C0F1C6319CE54F
:1028D000D90730F09E012A5F3C452930310570F55B
:1028E0000E945C209093B7028093B602C031ECE561
:1028F000DE0709F4CFC008F05BC0C8308CE5D8070C
:1029000009F4B6C088F5C430ECE5DE0709F4A8C0C8
:10291000C0F4C2308CE5D80709F49CC08091B6029F
:102920008260C330DC4509F498C08091B602909172
:10293000B7020E946A200E94131A80E0DF91CF91B3
:1029400008958091B6028061C630ECE5DE0709F497
:1029500084C08091B6028860C730DC4508F47DC031
:102960008091B602806279C0CC308CE5D80709F43A
:1029700089C070F48091B6028C60CA30ECE5DE0745
:1029800009F46BC008F478C08091B6028E7F65C0F0
:10299000CE308CE5D80709F479C08091B6028B7FE0
:1029A000CF30DC4508F459C08091B6028F7E55C007
:1029B000CB3FECE5DE0709F457C030F5C3318CE5B9
:1029C000D80709F46FC078F4C131ECE5DE0709F4EB
:1029D00065C0C231DC4509F0A8CF0E94131A80916E
:1029E000B6028F773AC0C5318CE5D80709F462C0CA
:1029F00008F476C08091B7028160CA3FDC4509F0D7
:102A000094CF8093B70291CFCF3FFCE5DF0709F465
:102A10004DC088F48091B7028D7FCD3F9CE5D907EA
:102A200081F38091B7028E7FCE3FDC4550F38091D9
:102A3000B7028360E6CFC130FDE5DF0709F459C076
:102A400008F444C080E0C230DD4509F06ECF0E943A
:102A5000EF206BCF8091B60281608093B60265CF84
:102A60008091B6028460F9CF8091B7028260C9CFAD
:102A70008091B6028064F1CF0E94131A8091B60251
:102A80008068EBCF8091B6028D7FE7CF8091B60250
:102A9000877FE3CF8091B6028F7DDFCF8091B60232
:102AA0008F7BDBCF8091B602837FD7CF8091B70237
:102AB0008C7FA7CF8091B60282FB992790F921E005
:102AC000922790FB82F990FB83F9C7CF8091B702E0
:102AD000982F909591708E7F892B90FB81F991CFE3
:102AE0000E94131A9091B602892F97FB87F980589C
:102AF000B4CF81E0ACCF81E021CFCF93DF93EB0166
:102B000086319C4511F50E94921F9A81992399F074
:102B10008A7A91E009F490E090931A02811109C039
:102B200089E20E946D1F0E94DE1F80E0DF91CF913D
:102B3000089585E3F6CF80911A02811104C089E2DD
:102B40000E94741FF0CF85E3FBCF81E0EFCF90931D
:102B5000200280931F020895E0911F02F09120024D
:102B6000309721F00190F081E02D099480E00895E4
:102B7000E0911F02F0912002309721F00280F38152
:102B8000E02D0994089520911D0230911E0228170E
:102B9000390771F090931E0280931D02E0911F028D
:102BA000F0912002309721F00680F781E02D099402
:102BB000089520911B0230911C022817390771F0EB
:102BC00090931C0280931B02E0911F02F09120025F
:102BD000309721F00084F185E02D099408950E943A
:102BE000D42160932C0270932D0280932E02909337
:102BF0002F02609328027093290280932A029093F7
:102C00002B0208950E94D42160932C0270932D0210
:102C100080932E0290932F026093240270932502DA
:102C20008093260290932702089585B7806885BF18
:102C300085B7806885BF0895089508950C941C1683
:102C400008950C9420160E94151681E490E20E94CB
:102C500024220E941D160C941E1681E008950C94E7
:102C60002D16089508950E94BF210E946F070E94AB
:102C7000C5100E9442220E948B0E0E942B100C94C1
:102C80002116AF92BF92DF92EF92FF920F931F93A4
:102C9000CF93DF93CDB7DEB72A970FB6F894DEBF98
:102CA0000FBECDBF0E9431160E9432160E949907B6
:102CB00081110E94EF1580E00E9465078C018091D0
:102CC0002202909123025C01A026B1268017910771
:102CD00009F45AC08091880281FD0E946E07D12CB0
:102CE000EE24E394F12CC5018E219F21892B09F458
:102CF00045C00E942F168823A9F0DE821F820E2174
:102D00001F2181E0012B09F480E088870E94C821FF
:102D10008160782F9A8789874E815F8168858A854F
:102D20000E94E5168091220290912302E826F9265E
:102D3000F0922302E09222020E94CF0E0E943B10EA
:102D400081110E9402160E94AC15909121028917F0
:102D500061F10E94AC15809321022A960FB6F89477
:102D6000DEBF0FBECDBFDF91CF911F910F91FF90BE
:102D7000EF90DF90BF90AF900C946505D394EE0C6C
:102D8000FF1C8EE0D812AFCF8FEF89838A831B821E
:102D90000E94C8218160782F9D838C8349815A814C
:102DA0006B818D810E94E516C7CF2A960FB6F894E5
:102DB000DEBF0FBECDBFDF91CF911F910F91FF906E
:102DC000EF90DF90BF90AF900895DF92EF92FF9267
:102DD0000F931F93CF93DF93CDB7DEB72B970FB62B
:102DE000F894DEBF0FBECDBF7A878B87F42E052FF8
:102DF000162FE72ED82E61110E94B21F1E821D824F
:102E00007E2DEC82DD824F2D502F612F8D2D9E81E6
:102E10002B960FB6F894DEBF0FBECDBFDF91CF91DA
:102E20001F910F91FF90EF90DF900C94891CFC0193
:102E3000808191810C943F1FCF93C82F882309F480
:102E40003FC08CEF8C0F813AA0F46C2F809117015A
:102E5000909118010E940621882329F08C2F0E944E
:102E6000741F0E94DE1F8C2F0E946D1FCF910C9447
:102E7000DE1F80E28C0F883048F4C77081E001C00B
:102E8000880FCA95EAF70E94951FF0CFEBE5EC0F8B
:102E9000E33040F4F0E0E453FE4F808190E0CF91C6
:102EA0000C94C315C85AC73158F4EC2FF0E0EE0F5C
:102EB000FF1FE256FE4F80819181CF910C94D9156E
:102EC000CF910895882329F19CEF980F913A20F42F
:102ED0000E94741F0C94DE1F90E2980F983050F4FB
:102EE000877091E001C0990F8A95EAF7892F0E94B7
:102EF0009B1FF0CF9BE5980F933020F490E080E08B
:102F00000C94C315885A873120F490E080E00C942B
:102F1000D91508951F93CF93DF93182FEB010E94CB
:102F20001C17209731F4812FDF91CF911F910C94C2
:102F300062178FE99FE00197F1F700C00000219729
:102F4000F0CF70E060E0893311F460E570E00C943C
:102F50008A17882321F00E94951F0C94DE1F089584
:102F6000882321F00E949B1F0C94DE1F0895BF92BE
:102F7000CF92DF92EF92FF920F931F93CF93DF9345
:102F80006C01D62FC72FFC011281058102950F70AD
:102F90000E948B1FE82E8823A1F0E12E112389F0D7
:102FA0008C2F807F803429F080E28D0FE12C8830D7
:102FB00040F082E00E9429200E948B1F91E0E82EC1
:102FC000E926BC2EB2949FE0B922EB2DF0E0E35C41
:102FD000F44D0C94062A0C2F0F70C07F11F002954F
:102FE000007F1123A9F0002359F080E28D0F883073
:102FF00010F0D11109C0802F0E94951F0E94DE1F82
:103000008D2F0E941C1714C0802F0E94A51FF6CF81
:103010008D2F0E946217002359F080E28D0F8830B7
:1030200010F0D1112CC0802F0E949B1F0E94DE1F28
:103030002B2D2850330B2430310520F40E94AC1581
:103040000E946505EE2009F493C10E94871F80FD50
:103050008FC1F60112820E94811F0E940D1EC601BF
:103060000E94D9190E94811FDF91CF911F910F916A
:10307000FF90EF90DF90CF90BF900C942E1E802F8A
:103080000E94AB1FD3CFFC2FFF70FF2EC07FC0323A
:1030900019F0F29480EFF822DD2369F0D13049F184
:1030A000112391F1002351F1F601858180FFA8CF12
:1030B0008F70858323C0112381F0011106C00E9407
:1030C000C51F8F290E94A917B3CF0130C1F70E94F5
:1030D000C51F8F290E94CB1FABCF011106C00E94D4
:1030E000D41F8F2D0E94B017A3CF013009F4A0CFB9
:1030F000F6CF112329F0063008F09ACF8F2DE2CFBA
:10310000053008F095CFEDCF002359F3D93349F4BA
:10311000FFEF27EE33E0F15020403040E1F700C0F0
:1031200000008D2F0E94621783CF8C2F8695869585
:10313000837069F0813009F07BCF8D2F9C2F9370C5
:10314000111102C090E080E00E94D91571CF8D2F3F
:103150009C2F9370111102C090E080E00E94C31573
:1031600067CF8C2F837009F041C0111161CF4D2FB3
:10317000429546954770440F440F0D2F0F7010E095
:1031800030E020E0042E04C0000F111F221F331F67
:103190000A94D2F760E070E0CB01D4FF0FC06FE07B
:1031A00070E080E090E004C0660F771F881F991FD1
:1031B0004A95D2F76095709580959095C695C6957D
:1031C000C370602B712B822B932BC23049F058F4C3
:1031D000C13019F00E94BF1D2BCF0E94AD1D28CF1A
:1031E0000E94D11D25CF0E94AB1D22CF86951123B1
:1031F00011F08C2F8170882309F41ACF4D2F42953E
:1032000046954770440F440F0D2F0F7010E030E0CB
:1032100020E0042E04C0000F111F221F331F0A9448
:10322000D2F760E070E0CB01D4FF0FC06FE070E038
:1032300080E090E004C0660F771F881F991F4A95B1
:10324000D2F76095709580959095C695C695C37098
:10325000602B712B822B932BC23049F058F4C13074
:1032600019F00E94841EE4CE0E94721EE1CE0E94DC
:10327000961EDECE0E94E71DDBCECF70112329F013
:103280008C2F0E940D1E8D2F1DCF8D2F0E94B017E9
:103290008C2F0E942E1ECCCED23F89F160F4D03FFD
:1032A000C9F0D13F29F1112309F442C00111A8CE80
:1032B0008C2F8F7121C0D33F39F1D43FA1F7112357
:1032C00069F1CF718C2F0E940D1E63E08C2F0E943C
:1032D0001420AECE112341F0053008F0A9CE8C2F7A
:1032E0008F710E94511EA4CE063008F0A1CEF7CFF8
:1032F0008C2F8F71112369F20E940D1E99CE8C2F95
:103300008F711123C9F3C5CF112329F08C2F8F7131
:103310000E94F81D8DCE0E94F31D8ACE81E00E948E
:103320002920023008F484CE82E00E94292080CE39
:10333000002359F0D93309F0F4CE8FEF97EEE3E094
:1033400081509040E040E1F7EACE8C2F8F71A1CF01
:103350004C2F4F706D2FC6010E946D050E94231DDA
:1033600067CE4C2F4F706D2FC6010E94700560CE46
:10337000DF91CF911F910F91FF90EF90DF90CF9051
:10338000BF9008950F931F93CF93DF93EC01688153
:1033900079818A810E94491F8C010E94A81E0E9487
:1033A000AA1DB801CE01DF91CF911F910F910C940E
:1033B000B717CF93DF93EC018B819C81892B29F088
:1033C0008881998189238F3F59F4DF91CF910895A6
:1033D000CE010E94C219CE01DF91CF910C944B0314
:1033E000CE010E94D8038111F3CF0E948B1F882346
:1033F00061F38A81882349F382E0DF91CF910C94B5
:10340000292090E080E00E94C31590E080E00E94B7
:10341000D9150E94B21F0E94C21F0C94DE1F0E9489
:103420007B1F0C94011A0E94A21F0C940F1AE92F03
:10343000E295EF70E250EE3070F4F0E0E35BF44DB3
:103440000C94062A803F19F020F4883E20F481E095
:103450000895843FE1F380E00895883EC0F3813F02
:10346000D1F7F5CF93FB882780F908950E943F1F7D
:103470000C94171ACF93DF9300D000D00F92CDB7E2
:10348000DEB70F900F900F900F900F90DF91CF91BC
:103490000895CF93DF9300D000D000D0CDB7DEB732
:1034A00026960FB6F894DEBF0FBECDBFDF91CF9149
:1034B00008951F93CF93DF93C091310216E080915E
:1034C00032028C1304C0DF91CF911F910895D0E098
:1034D0001C9FF0011D9FF00D1124ED5CFD4F4081FC
:1034E000518162817381848195810E94491A21965C
:1034F000C770E5CF4091630250916402609165020C
:103500007091660280916702909168020C94491A4A
:103510001F93CF93DF9380916802807FA9F48091FD
:103520006502882389F080913102C0913202609156
:10353000630270916402A0916602B0916702D62F77
:10354000D72316E0C81304C0DF91CF911F910895CF
:1035500090E0109711F0DF3F19F401968770F2CFD9
:10356000189F9001199F300D1124F901ED5CFD4F5A
:1035700041814713F2CF40814613EFCF4281411181
:10358000ECCF438154814A1B5B0B483C510528F723
:10359000809168028F70806180936802F901E85C15
:1035A000FD4F80818F708061808383E692E00E946E
:1035B000D919DF91CF911F910C94591AAF92BF92F4
:1035C000CF92DF92EF92FF920F931F93CF93DF93EF
:1035D000CDB7DEB761970FB6F894DEBF0FBECDBF93
:1035E0008C0185E0F801DE011D9601900D928A950F
:1035F000E1F7F80140815181E28083E6C82E82E044
:10360000D82E60916602709167026115710509F408
:1036100061C19091630220916402892F82238F3FC0
:1036200009F458C1A380B480F0906502F501E61B4F
:10363000F70BFF2009F4FCC080916802382F307F1F
:10364000E83CF10508F0B2C0311179C0FE2C251319
:1036500023C0941321C0E1101FC08F70806180933C
:1036600068020E947A1AC6010E94D91980916802E4
:10367000F80185838F2D61960FB6F894DEBF0FBEDB
:10368000CDBFDF91CF911F910F91FF90EF90DF9011
:10369000CF90BF90AF900895AB2829F0842F852359
:1036A0008F3F09F033C180E0F82FF170DF2E80FFEB
:1036B0003CC0809131022091320236E0821315C065
:1036C0004D875E878D859E850E943F1F292F2295FD
:1036D0002F702230F0F0243018F59F70F1F0F801CF
:1036E0009581907FD1F4D12C1EC090E0389FF001DD
:1036F000399FF00D1124ED5CFD4F6181651306C00B
:103700006081641303C062816E110FC001968770DF
:10371000D5CF9F7011F0882331F3805E883018F385
:10372000C8010E94D919FD2CA5CFEE2009F4A2CF23
:1037300080916802816080936802F12C9BCF2513F1
:1037400006C0941304C0F801EE2009F48DC04D8723
:103750005E878D859E850E94361A882319F1EE209A
:1037600009F180916802803270F0209163023091FB
:10377000640238872F831986BB86AA868C87CE0180
:1037800007960E94D91986E0F801A3E6B2E00190FD
:103790000D928A95E1F70E94881A0E947A1AFF24F6
:1037A000F39468CFC8010E94D919F9CF311113C021
:1037B0007A2DB98AA88A6E2D89890E943A1A83E6E1
:1037C00092E00E94D91986E0F60111928A95E9F7F4
:1037D0000E947A1AB2CF25130FC094130DC0E110C6
:1037E0000BC0F8018583C8010E94D91986E0F60153
:1037F00011928A95E9F73ECF4D875E878D859E852C
:103800000E94361A882371F2EE2061F280916802DC
:10381000803208F4B8CF20916302309164023A8379
:1038200029831B82BD82AC828E83CE010196A9CFF3
:10383000E83CF10508F041C0FE2CEE2009F4B2CFBF
:1038400025132AC0941328C08091680280FD1BC0F4
:10385000982F907FC1F0F8018583903F31F0982F29
:10386000907F905F8F70892B8583C8010E94D91942
:1038700086E0F801A3E6B2E001900D928A95E1F7A7
:103880000E947A1AF7CE86E0F801A3E6B2E0019032
:103890000D928A95E1F7EECE4D875E878D859E85E8
:1038A0000E94361A81116FCF8091680281608093E7
:1038B0006802C8010E94D919DDCE7A2DB98AA88A7A
:1038C0006E2D89890E943A1A86E0F60111928A9536
:1038D000E9F7D6CFEE2009F465CF4D875E878D8559
:1038E0009E850E94361AF82E882309F45BCF86E065
:1038F000F801A3E6B2E001900D928A95E1F783E624
:1039000092E00E9417170E94881ABACF81E08E2594
:10391000CBCE1F93CF93DF93CDB7DEB72C970FB6E7
:10392000F894DEBF0FBECDBF4F83588769877A8773
:103930008B879C87CE0107960E94DE1A882369F048
:103940008A859B85892B39F04F815885842F852363
:103950008F3F09F071C016E05FC086E0FE01379628
:10396000DE01119601900D928A95E1F78A859B857B
:10397000892B89F38F81988589238F3F61F320916B
:10398000320230E0C90101968770992740913102D7
:103990004817190671F40E94131A109232021092FD
:1039A000310286E0E3E6F2E0DF011D928A95E9F755
:1039B000D2CF96E0929FD001939FB00D1124AD5CC1
:1039C000BD4FFE01319601900D929A95E1F78093DB
:1039D00032020E94591ABFCF819FC00111248D5C11
:1039E0009D4F0E94DE1A8823E9F0E09131021E9F6C
:1039F000F0011124ED5CFD4F4081518162817381A2
:103A0000848195810E94491A8091310290E001964B
:103A10008770992780933102809131029091320210
:103A20008913DACF2C960FB6F894DEBF0FBECDBF48
:103A3000DF91CF911F91089569857A858B859C854B
:103A40000E94491A88CFEF92FF920F931F93CF9352
:103A5000DF938C01892B81F0F12CEE24E394E801B3
:103A60002196F8018491843770F4843008F05FC0A7
:103A70008130B1F08230A1F1DF91CF911F910F9190
:103A8000FF90EF900895853709F44CC008F43DC0CD
:103A90009CE7980F903780F78F770E94621749C094
:103AA0000E5F1F4FFE01849190E2980F983060F4F2
:103AB0008770FE2D01C0FF0F8A95EAF78F2F0E94B5
:103AC000B51F0E94DE1F02C00E941C178F2D81505F
:103AD00030F2EFE9FFE03197F1F700C00000F7CFD7
:103AE0000E5F1F4FFE01849190E2980F983050F4C2
:103AF0008770FE2D01C0FF0F8A95EAF78F2F0E9475
:103B0000BB1FDFCF0E946217E1CF0E5F1F4FFE0188
:103B1000C491C150D8F28FE99FE00197F1F700C03E
:103B20000000F7CF0E5F1F4FFE01F490CFCF0E9431
:103B30001C178E01CBCF08950C949B1D0E949C1DD9
:103B400060937702709378028093790290937A025F
:103B50000C94011A08950C949E1D0F931F930091CD
:103B60007702109178022091790230917A02602BCD
:103B7000712B822B932B1F910F910C949E1D0F93F1
:103B80001F93009177021091780220917902309171
:103B90007A0260237123822393231F910F910C9447
:103BA0009E1D0F931F930091770210917802209130
:103BB000790230917A0260277127822793271F911B
:103BC0000F910C949E1D0C949B1D0C94E31D0E9460
:103BD000E51D609373027093740280937502909355
:103BE00076020C94011A60E070E0CB010C94E71DA2
:103BF0000F931F9341E050E060E070E08A019B0169
:103C000004C0000F111F221F331F8A95D2F7C9016C
:103C1000B8011F910F910C94E71D0F931F9341E082
:103C200050E060E070E004C0440F551F661F771F2E
:103C30008A95D2F78091730290917402A0917502D7
:103C4000B09176028A019B01082B192B2A2B3B2B62
:103C5000C901B8011F910F910C94E71D0F931F9399
:103C600041E050E060E070E004C0440F551F661F63
:103C7000771F8A95D2F7CB01BA0160957095809530
:103C80009095009173021091740220917502309109
:103C9000760260237123822393231F910F910C944A
:103CA000E71D0F931F9341E050E060E070E004C017
:103CB000440F551F661F771F8A95D2F780917302B4
:103CC00090917402A0917502B09176028A019B01D5
:103CD000082719272A273B27C901B8011F910F91EF
:103CE0000C94E71D0F931F930091730210917402BF
:103CF0002091750230917602602B712B822B932BD1
:103D00001F910F910C94E71D0F931F930091730265
:103D10001091740220917502309176026023712314
:103D2000822393231F910F910C94E71D0F931F93F0
:103D30000091730210917402209175023091760205
:103D400060277127822793271F910F910C94E71DFD
:103D500008952EE0929F800D1124982F977041E0D6
:103D600001C0440F9A95EAF786958695869595E069
:103D7000899FF0011124E759FD4F90E080E070E049
:103D80005191DF0111979B01082E02C036952795AE
:103D90000A94E2F7217021952527242325272C93C7
:103DA00001968530910561F708952EE0929F800D70
:103DB0001124982F977086958695869525E0829F89
:103DC000F0011124E759FD4F50E040E080E02191DF
:103DD00030E0092E02C0369527950A94E2F721704B
:103DE0003327042E01C0220F0A94EAF7822B4F5F7B
:103DF0005F4F4530510559F70895BF92CF92DF923A
:103E0000EF92FF920F931F93CF93DF938C01C0909B
:103E10007302D0907402E0907502F0907602809167
:103E2000770290917802A0917902B0917A02C82A23
:103E3000D92AEA2AFB2ACFE1D0E0BC2ED701C6015D
:103E40000C2E04C0B695A795979587950A94D2F73E
:103E500080FD0EC0219788F7B12C8B2DDF91CF917B
:103E60001F910F91FF90EF90DF90CF90BF9008953A
:103E7000B8018C2F0E947905019761F3EECFCF93A3
:103E8000DF93EC010E94FD1EBE01DF91CF910C94E7
:103E900079051F93CF93DF93EB0190913002992323
:103EA00031F0CB01DF91CF911F910C943F1F8823FC
:103EB00079F0CB010E94FD1E182F682FCE010E94C1
:103EC000A91EBE01812FDF91CF911F910C9479051E
:103ED000CB010E94D51E182FF4CF682F80911701B7
:103EE000909118010C943C21682F809117019091BA
:103EF00018010C943E2180911701909118010C94A7
:103F0000402180917B0285958595859508958091C6
:103F10007B028770089590917B02977081E009F48D
:103F200080E0089580918702089590918702892BFF
:103F300080938702089580959091870298239093AB
:103F40008702089510928702089590918602892B26
:103F5000809386020895809590918602982390938D
:103F60008602089510928602089590918502892B09
:103F7000809385020895809590918502982390936F
:103F80008502089510928502089580917C0208951B
:103F900008950C94C81F90917C02981721F080938B
:103FA0007C020C94C91F089580917C02882329F01B
:103FB00010927C0280E00C94C91F0895E0911701D3
:103FC000F0911801809187028083E0911701F091B0
:103FD0001801808190918602892B8083E0911701DE
:103FE000F0911801808190918502892B80839091B6
:103FF0007C02992381F0E0911701F09118018081F2
:10400000892B808380911701909118010E94F420E0
:1040100081110E94D41F80911701909118010C9476
:10402000B81508950C94112098E0899F90011124EF
:10403000622B60937B020E940D1E80917B0285950E
:10404000859585950C94122010927B0280E00C944B
:10405000122090917B028095892380937B02282FE8
:10406000277071F4282F082E000C330B92171306BB
:1040700039F08595859585950E942E1E0C942420F7
:10408000089580E008956FEF7FEF90E080E00C945A
:10409000DF2A90E080E00E94BB2A21E08B3E9E4F09
:1040A00009F020E0822F089582E090E00C94AD2A80
:1040B00083E090E00C94AD2ACF9384E090E00E94DE
:1040C000AD2AC82F81E290E00E94AD2A982F8C2F54
:1040D000CF910895CF93C92F682F84E090E00E947C
:1040E000C12A6C2F81E290E0CF910C94C12AAB01E0
:1040F000BC018FE090E00C94D32AAB01BC0183E1BA
:1041000090E00C94D32A60E070E0CB010C947D2009
:1041100060E070E0CB010E9477200C9483206BEE6E
:104120007EEF90E080E00E94DF2A60E082E090E095
:104130000E94C12A60E083E090E00E94C12A1092B0
:104140007702109278021092790210927A0260E05F
:1041500084E090E00E94C12A60E081E290E00E9449
:10416000C12A60E085E090E00E94C12A60E086E01C
:1041700090E00E94C12A6FEF87E090E00E94C12A80
:1041800040E050E0BA0188E090E00E94D32A60E06D
:104190008DE090E00E94C12A40E050E0BA0188E141
:1041A00090E00E94D32A60E087E190E00E94C12A5B
:1041B00040E050E0BA018CE190E00E94D32A60E038
:1041C00080E290E00E94C12A40E050E0BA0188E11C
:1041D00090E00E94D32A0C9488200C948F20682FA2
:1041E0008EE090E00C94C12A9C012E5F3F4FAC0101
:1041F000485F5F4F80E02417350709F40895F901FF
:1042000091919F019923B9F38F5FF5CF662349F010
:10421000FC01329608962191261729F0E817F90734
:10422000D1F780E0089581E008959C01FC01329669
:104230009FEF80E04191461751F09F3F19F44111E3
:1042400001C0982F8F5F8630A9F79F3F09F408952A
:10425000290F311D97FD3A95F90162830895FC01FC
:10426000329608962191261303C0DF0111971C9204
:10427000E817F907B9F708950C9415210C942F212C
:10428000029626E0FC0111922A95E9F70895089517
:1042900008950C9448218091BC02843059F10E9409
:1042A000492180E00E9465050E94FA0D1092890262
:1042B00088E190E020E40FB6F894A8958093600020
:1042C0000FBE2093600083B7817F846083BF83B774
:1042D000816083BF7894889583B78E7F83BF0FB644
:1042E000F894A89580916000886180936000109296
:1042F00060000FBE089508950E9447210E9499070B
:104300000E947B2180E00E94650721E0892B09F44F
:1043100020E0822F089508950C948B210E94131A97
:104320000E94AC150E9465050E94C60E0C948C215B
:104330001F921FB61F9211248F939F93AF93BF9329
:1043400080918902811113C08091B2029091B302D1
:10435000A091B402B091B5024196A11DB11D809308
:10436000B2029093B302A093B402B093B502BF918E
:10437000AF919F918F911F901FBE1F90189582E063
:1043800084BD93E095BD9AEF97BD80936E0008952C
:104390002FB7F8948091B2029091B302A091B40229
:1043A000B091B5022FBF08952FB7F8946091B20273
:1043B0007091B3028091B4029091B5022FBF08951D
:1043C0009C014FB7F8948091B2029091B302A091F2
:1043D000B402B091B5024FBF821B930B089578943D
:1043E0001F921FB61F9211248F939F93AF93BF9379
:1043F0008091B2029091B302A091B402B091B50243
:104400000196A11DB11D8093B2029093B302A093B7
:10441000B402B093B502BF91AF919F918F911F905D
:104420001FBE1F90189587E797E790930108809328
:10443000000888E19AE00FB6F894A8958093600090
:104440000FBE90936000FFCF9093DF018093DE0159
:1044500008950C94B2100E9499072FEF86E791E01F
:10446000215080409040E1F700C000000E94990771
:1044700080E00E94650780FF04C00E9429220C94FE
:10448000132208950E944920811102C00E94ED204C
:104490000E945420809388020E945C209093B7026F
:1044A0008093B6020E945820682F70E090E080E070
:1044B0000E94AB1D6091730270917402809175022D
:1044C000909176020C94E51D8091920208950895D2
:1044D000CF93DF9300D00F92CDB7DEB79091BC029F
:1044E000943011F589837B836A839093E9008FEF81
:1044F0009091E800815095FD06C095ED9A95F1F7F1
:1045000000008111F5CF8091E80085FF0DC050E0DB
:1045100040E063E070E0CE0101960E94C2248091E9
:10452000E8008E778093E8000F900F900F90DF9156
:10453000CF910895BC0184E00C946822BC0183E013
:104540000C946822CF93DF93EC0181E08093E90023
:104550008FEF9091E800815095FD06C095ED9A95FA
:10456000F1F700008111F5CF8091E80085FF14C0BC
:1045700050E040E068E070E0CE010E94C2248091EB
:10458000E8008E778093E80088E0FE01AAE8B2E0B8
:1045900001900D928A95E1F7DF91CF910895CF9325
:1045A000FC01603221F58091BC02843001F5C0919C
:1045B000E900CF702091EC00922F917020FD90E8DF
:1045C000C92B82E08093E9008091E80080FF0CC055
:1045D00050E040E060E270E0CF010E94C224809190
:1045E000E8008E778093E800CF70C093E900CF9108
:1045F00008958091BB02811109C00E94A1260E94EA
:10460000FE268091E20084608093E200089510927B
:10461000BB02089508950895089542E061EC81E099
:104620000E941D2642E261EC84E00E941D2642E2C7
:1046300061EC82E00E941D2642E260EC83E00C9473
:104640001D268091BE02833009F461C030F48130B0
:10465000D1F1823009F49DC008958A3009F489C0EF
:104660008B3009F46FC0893009F050C08091BD02D1
:10467000813209F04BC08091C1029091C202009733
:1046800019F0029709F042C08091E800877F80937B
:10469000E8008091E80082FF35C09091F30080919E
:1046A000F200029729F48091F1008B7F813021F490
:1046B0008091F100809392028091E8008B77809343
:1046C000E8000C9451268091BD02813AF9F4809162
:1046D000E800877F8093E8008091C1029091C20238
:1046E000892B61F468E08AE892E070E00E9460251E
:1046F0008091E8008B778093E800089560E090E077
:1047000080E0F3CF8091BC028111C3CF08958091E6
:10471000BD02813AD9F78091C1029091C202892BE2
:10472000A9F78091E800877F8093E8008091E800F6
:1047300080FFFCCF809123018093F1008091E800FD
:104740008E77BDCF8091BD02813201F78091C10289
:104750009091C202892BD1F68091E800877F8093E7
:10476000E8000E9451268091BF02809323010C949F
:10477000131A8091BD02813249F68091E800877F4B
:104780008093E8000E9451268091C002809393029A
:1047900008958091BD02813A09F0B8CF8091E80078
:1047A000877F8093E8008091E80080FFFCCF8091B4
:1047B0009302C2CFCDB7DEB7A0970FB6F894DEBF95
:1047C0000FBECDBF84B7877F84BF0FB6F894A8957E
:1047D00080916000886180936000109260000FBE3D
:1047E00080E890E00FB6F8948093610090936100A8
:1047F0000FBE0E9423160E94A1260E94FE268091D1
:10480000E20084608093E20078940E9487290E94ED
:10481000331689E191E00E94A71513E08091BC0254
:104820008530C9F00E9441168091BC028430D1F0DD
:104830000E9431160E943216F1CF0E944B218091C6
:10484000BA02882341F00E947C21882321F00E9433
:10485000AC240E94131A8091BC02853071F30E942F
:104860008E21E0CF1093E9008091E80082FFE0CF35
:104870008091E80090E085FF09C050E040E060E2F0
:1048800070E0CE0101960E94112591E08091E80030
:104890008B778093E800992359F260E2CE0101966C
:1048A0000E946A11C5CF0C945524292F3327233039
:1048B000310521F168F42130310509F443C022307B
:1048C000310509F444C090E080E030E020E026C0EB
:1048D0002132310551F122323105A9F763307105DA
:1048E00090F7FB01EE0FFF1FEE52FE4F208131814A
:1048F00061537E4FFB01808190E010C09927813089
:10490000910581F0009729F00297E9F6E2E0F4E0E2
:1049100002C0E6E2F4E0849190E09F01FA01318365
:1049200020830895E2E1F4E0F6CF6330710558F694
:10493000660F771FFB01E852FE4F2081318189E02D
:1049400090E0ECCF82E190E025E834E0E7CF8BE522
:1049500090E02AE234E0E2CF80E189BD82E189BDC6
:1049600009B400FEFDCF8091D8008F7D8093D800E0
:104970008091E00082608093E0008091E00081FD02
:10498000FCCF0895AF92BF92CF92DF92FF920F9328
:104990001F93CF93DF936C01EB018A010E94702675
:1049A000F82E811123C00115110539F0F80180811D
:1049B0009181C81BD90BC80ED91EB12CA12C2097F0
:1049C000A9F08091E80085FD22C08091E8008E77F3
:1049D0008093E80001151105A1F0F8018081918113
:1049E000A80EB91EB182A08285E0F82E8F2DDF912E
:1049F000CF911F910F91FF90DF90CF90BF90AF901C
:104A000008950E9470268823D1F2F82EEFCFF60188
:104A100081916F018093F1002197FFEFAF1ABF0AD8
:104A2000CECFAF92BF92CF92DF92FF920F931F93A0
:104A3000CF93DF936C01EB018A010E947026F82E60
:104A4000811123C00115110539F0F8018081918190
:104A5000C81BD90BC80ED91EB12CA12C2097A9F0C8
:104A60008091E80085FD22C08091E8008B778093DB
:104A7000E80001151105A1F0F80180819181A80ECF
:104A8000B91EB182A08285E0F82E8F2DDF91CF91E3
:104A90001F910F91FF90DF90CF90BF90AF9008953E
:104AA0000E9470268823D1F2F82EEFCF8091F1007A
:104AB000F60181936F012197FFEFAF1ABF0ACECFA6
:104AC000FC018091C3029091C40286179707A0F061
:104AD0006115710529F49091E8009E779093E800A4
:104AE00090E06115710551F4911108C08091E800C2
:104AF00082FF34C080E00895BC01F2CF8091BC02F7
:104B00008823C1F18530C1F18091E80083FD30C078
:104B10008091E80082FDEACF8091E80080FFE1CF3C
:104B20008091F3002091F200382F6115710519F082
:104B30002830310558F091E02830310509F090E037
:104B40002091E8002E772093E800CBCF81918093CD
:104B5000F100615071092F5F3F4FE7CF8091BC0298
:104B6000882341F0853041F08091E80083FFBECF7B
:104B700081E0089582E0089583E00895FC0180912A
:104B8000C3029091C40286179707A0F061157105C2
:104B900029F48091E8008E778093E80090E0611519
:104BA000710551F4911108C08091E80082FF35C071
:104BB00080E00895BC01F2CF8091BC028823C9F146
:104BC0008530C9F18091E80083FD31C08091E80013
:104BD00082FDEACF8091E80080FFE1CF8091F30071
:104BE0002091F200382F6115710519F02830310538
:104BF00058F091E02830310509F090E08091E8000C
:104C00008E778093E800CBCF84918093F10031962A
:104C1000615071092F5F3F4FE6CF8091BC0288231E
:104C200041F0853041F08091E80083FFBDCF81E005
:104C3000089582E0089583E00895982F973028F032
:104C40008F708093E90081E008959093E900242F0C
:104C5000762F50E0981731F07091EC002091ED0024
:104C60005091F00021FD02C09F5FE8CF3091EB0032
:104C70003E7F3093EB003091ED003D7F3093ED00AF
:104C80003091EB0031603093EB007093EC00209397
:104C9000ED005093F0002091EE0027FDE5CF80E07D
:104CA00008958091BD0287FF13C08091E80082FFC4
:104CB00006C08091E8008B778093E80004C0809163
:104CC000BC028111F2CF08958091BC028823D9F3F0
:104CD0008091E80080FFF8CF8091E8008E77ECCFDC
:104CE0002091E4003091E50095E6A9012091EC00C7
:104CF000822F817020FF06C08091E80080FF06C0EF
:104D000080E008952091E80022FD1AC08091BC0245
:104D1000882389F0853089F08091EB0085FD0FC0F4
:104D20002091E4003091E50042175307F9F29150C9
:104D3000E1F684E0089582E0089583E0089581E03B
:104D400008950E940F270E941727E0EEF0E080816F
:104D500081608083E8EDF0E080818F77808319BCEB
:104D6000A7EDB0E08C918E7F8C9380818F7E8083C5
:104D70001092BB0208950F931F93CF93DF930E946D
:104D80000F270E941727C8EDD0E088818F7788838E
:104D900088818068888388818F7D888319BC109280
:104DA000BC021092B8021092BA021092B90200EE40
:104DB00010E0F80180818B7F808388818160888307
:104DC00042E060E080E00E941D26E1EEF0E080819C
:104DD0008E7F8083E2EEF0E080818160808380813D
:104DE00088608083F80180818E7F808388818061E4
:104DF0008883DF91CF911F910F910895E8EDF0E046
:104E000080818F7E8083E7EDF0E080818160808308
:104E100084E082BF81E08093BB020C94BB26E8ED66
:104E2000F0E080818E7F80831092E20008951092DE
:104E3000DA001092E10008951F920F920FB60F92C0
:104E400011242F933F934F935F936F937F938F938F
:104E50009F93AF93BF93EF93FF938091E10082FF05
:104E60000BC08091E20082FF07C08091E1008B7F40
:104E70008093E1000E9486298091DA0080FF19C0AA
:104E80008091D80080FF15C08091DA008E7F8093DA
:104E9000DA008091D90080FF96C080E189BD82E16F
:104EA00089BD09B400FEFDCF81E08093BC020E9461
:104EB000F9228091E10080FF19C08091E20080FF1B
:104EC00015C08091E2008E7F8093E2008091E20025
:104ED00080618093E2008091D80080628093D80046
:104EE00019BC85E08093BC020E940B238091E100F5
:104EF00084FF2BC08091E20084FF27C080E189BD40
:104F000082E189BD89B5982F917080FFFBCF809198
:104F1000D8008F7D8093D8008091E1008F7E8093B0
:104F2000E1008091E2008F7E8093E2008091E200B8
:104F300081608093E2008091B802882309F449C01F
:104F400084E08093BC020E940C238091E10083FFE7
:104F500029C08091E20083FF25C08091E100877F16
:104F60008093E10082E08093BC021092B8028091AD
:104F7000E1008E7F8093E1008091E2008E7F80933C
:104F8000E2008091E20080618093E20042E060E014
:104F900080E00E941D268091F00088608093F000E0
:104FA0000E940A23FF91EF91BF91AF919F918F9142
:104FB0007F916F915F914F913F912F910F900FBE15
:104FC0000F901F90189519BC1092BC020E940723E5
:104FD00070CF8091E30087FD93E09093BC02B3CF44
:104FE0001F920F920FB60F9211242F933F934F935E
:104FF0005F936F937F938F939F93AF93BF93CF9361
:10500000DF93EF93FF93D091E900DF708091EC0084
:10501000C82FC17080FDC0E81092E9008091F000B7
:10502000877F8093F00078940E9434281092E900E2
:105030008091F00088608093F000CD2BCF70C093FA
:10504000E900FF91EF91DF91CF91BF91AF919F91D7
:105050008F917F916F915F914F913F912F910F9021
:105060000FBE0F901F9018951F93CF93DF93CDB76E
:10507000DEB7AA970FB6F894DEBF0FBECDBF8DEB9B
:1050800092E02091F100FC012193CF01F2E0853CF8
:105090009F07B9F70E9421238091E80083FF1EC17A
:1050A0008091BD029091BE029A3008F017C1E92F9D
:1050B000F0E0E55AF44D0C94062A803899F08238D5
:1050C00009F00CC18091C1028F70873008F006C1D1
:1050D0008093E9008091EB0085FB882780F910928E
:1050E000E90006C08091B9029091BA0291118260E4
:1050F0009091E800977F9093E8008093F1001092E0
:10510000F1008091E8008E77E5C0882309F4D3C0D0
:10511000823009F0E3C08091BF028111D6C0809136
:10512000C1028F702FEF280F263008F0D7C0809370
:10513000E9002091EB0020FFC8C0933031F480914A
:10514000EB0080628093EB00C0C09091EB00906117
:105150009093EB0021E030E001C0220F8A95EAF73E
:105160002093EA001092EA008091EB008860EACF79
:105170008111B4C01091BF021F778091E300807845
:10518000812B8093E3008091E800877F8093E80083
:105190000E9451268091E80080FFFCCF8091E300BF
:1051A00080688093E30082E0111183E08093BC0269
:1051B00095C08058823008F091C08091BF029091D4
:1051C000C0028C3D23E09207A1F583E08A838AE246
:1051D00089834FB7F894DE01139620E03EE051E258
:1051E000E32FF0E050935700E49120FF03C0E295D5
:1051F000EF703F5FEF708E2F90E0EA30C0F0C796FF
:105200008D939D932F5F243159F74FBF8091E80014
:10521000877F8093E8006AE270E0CE0101960E94E9
:1052200060258091E8008B778093E80057C0C09696
:10523000E7CF6091C1027091C202AE014F5F5F4F34
:105240000E945324BC01892B09F448C09091E800C6
:10525000977F9093E80089819A810E94BE25E1CFD3
:105260008038E1F58091E800877F8093E8008091A5
:10527000B8028093F10045CF811130C09091BF02F8
:10528000923060F58091E800877F8093E8009093EA
:10529000B8020E9451268091B802882311F084E060
:1052A00005C08091E30087FDFACF81E08093BC02C6
:1052B0000E940D2313C08091BF02813079F481E0F8
:1052C000933009F080E08093BA021092E900809157
:1052D000E800877F8093E8000E9451268091E800D3
:1052E00083FF0AC08091E800877F8093E800809167
:1052F000EB0080628093EB00AA960FB6F894DEBFB5
:105300000FBECDBFDF91CF911F9108950895CF9328
:105310008091BC028823A1F0C091E900CF709091E8
:10532000EC00892F817090FD80E8C82B1092E90075
:105330008091E80083FD0E943428CF70C093E9007B
:10534000CF910895991B79E004C0991F961708F032
:10535000961B881F7A95C9F78095089587FB082EBC
:10536000062687FD819567FD61950E94A2290EF4AE
:10537000919507FC81950895AA1BBB1B51E107C0BD
:10538000AA1FBB1FA617B70710F0A61BB70B881FD5
:10539000991F5A95A9F780959095BC01CD01089564
:1053A00097FB072E16F4009407D077FD09D00E94D2
:1053B000BC2907FC05D03EF4909581959F4F089538
:1053C000709561957F4F0895A1E21A2EAA1BBB1B11
:1053D000FD010DC0AA1FBB1FEE1FFF1FA217B307C1
:1053E000E407F50720F0A21BB30BE40BF50B661FD7
:1053F000771F881F991F1A9469F76095709580959B
:1054000090959B01AC01BD01CF010895EE0FFF1FE8
:105410000590F491E02D099469279627692778274C
:105420008727782708950E941B2A332312F48A1BAA
:105430009B0B0C942C2AA29FB001B39FC001A39F89
:10544000700D811D1124911DB29F700D811D1124BD
:10545000911D08950E941B2AB7FF0895821B930B8C
:1054600008950E941B2AA59F900DB49F900DA49FA4
:10547000800D911D11240895B7FF0C94312A0E94CC
:10548000312A821B930B08958F929F92AF92BF9205
:10549000CF92DF92EF92FF92CF93DF93EC0168817E
:1054A00079818A819B81611571058105910521F4BE
:1054B00064E279ED8BE597E02DE133EF41E050E0D8
:1054C0000E94F52A49015A019B01AC01A7EAB1E407
:1054D0000E94312A6B017C01ACEEB4EFA50194016E
:1054E0000E943F2ADC01CB018C0D9D1DAE1DBF1D0E
:1054F000B7FF03C00197A109B04888839983AA83A5
:10550000BB839F77DF91CF91FF90EF90DF90CF909B
:10551000BF90AF909F908F9008950E94442A089565
:1055200080E091E00E94442A0895B0E0A0E08093DA
:10553000000190930101A0930201B093030108952B
:10554000FC014150504030F001900616D1F73197E0
:10555000CF010895882799270895F999FECF92BD24
:1055600081BDF89A992780B50895A6E1B0E044E09E
:1055700050E00C94E72AA8E1B0E042E050E00C943F
:10558000E72A262FF999FECF92BD81BDF89A01979F
:1055900000B4021639F01FBA20BD0FB6F894FA9A7B
:1055A000F99A0FBE08950396272F0E94C22A0E94DF
:1055B000C12A252F0E94C22A242F0C94C22A0196A8
:1055C000272F0E94C22A0C94C12ADC01CB01FC01C6
:1055D000F999FECF06C0F2BDE1BDF89A319600B44C
:1055E0000D9241505040B8F70895052E97FB1EF4D8
:1055F00000940E940C2B57FD07D00E94E42907FC61
:1056000003D04EF40C940C2B509540953095219579
:105610003F4F4F4F5F4F08959095809570956195DE
:105620007F4F8F4F9F4F0895F894FFCFA30FAB0F7D
:10563000B20FB70FBC0FC10FC60FCB0FD00FD50FD6
:10564000DA0FDF0FE30FE80FEB0FEE0FF10FF40FA0
:10565000F60FF90F7B118511A611B211BD11C811FA
:10566000CB11CE11D1111A121A12D411D811E01186
:10567000ED11FA11FD1100120D12EB17EB17431883
:1056800043189518181818181818B1183D194C19FE
:105690004C19A81918181818B119221A221A2B1AFD
:1056A0002B1A2D1A2B1A2B1A2B1A221A221A321ADB
:1056B0002B1A2B1A321A5D2885286E2985286E2907
:0A56C000B828D9286E2930293C29AA
:1056CA0001000000010102000700070701191A1B67
:1056DA001C1D1E1F2021227D026422A22267229EF7
:1056EA00229A2201E200E900EA00B500B600B700FA
:1056FA00CD008301CC008A01920194012102230288
:10570A0024022502260227022A02B300B4006F00EF
:10571A007000818283929466C6F531939734F6338A
:10572A0035F7F40001020202020606060909090910
:10573A0009090F0F0F0F0F0F151515181919191938
:10574A00191919191919232425252525252500FF95
:10575A000100010000FFFF0000010001FF00E2005C
:10576A00E900EA00B500B600B700CD008301CC001D
:10577A008A019201940121022302240225022602AF
:10578A0027022A02B300B4006F00700081828340AE
:0E579A002232EB049704B9043C045504750454
:00000001FF
