:100000000C9431030C9478030C9478030C947803CB
:100010000C9478030C9478030C9478030C94780374
:100020000C9478030C9478030C940C2B0C94E02B18
:100030000C9482250C9478030C9478030C94780328
:100040000C9478030C9478030C9478030C94780344
:100050000C9478030C94D9250C9478030C947803B1
:100060000C9478030C9478030C9478030C94780324
:100070000C9478030C9478030C9478030C94780314
:100080000C9478030C9478030C9478030C94780304
:100090000C9478030C9478030C9478030C947803F4
:1000A0000C9478030C9478030C947803687474703F
:1000B0003A2F2F7371756173686B622E636F6D00D9
:1000C0007965656861772100A900AA00AC00285D08
:1000D0005200295D0151AB00500051004F00AE00AD
:1000E0001601C25CC55CC65CC75CC95CCA5CCB5C03
:1000F0000100C85CC35CC45CCC5C01000100005C16
:1001000001000100010001000100010001000100E7
:1001100001000100010001000100010001000100D7
:1001200001000100010001000100010001000100C7
:1001300001000100010001000000000000000000BB
:100140002A2B280000000000000000000000000032
:1001500000000029000000002C1E3420212224343D
:100160002627252E362D3738271E1F20212223240F
:1001700025263333362E37381F0405060708090AAB
:100180000B0C0D0E0F101112131415161718191A47
:100190001B1C1D2F3130232D350405060708090AC5
:1001A0000B0C0D0E0F101112131415161718191A27
:1001B0001B1C1D2F3130354C0000000000000000DA
:1001C000000000000000000000000000000000002F
:1001D0000000000000000000000000007E0F00D4BE
:1001E000FFFFFFC7000000781E0F0500047F3F1FC0
:1001F000643214643214783C1E1E140A052223252E
:100200002628292A2C2D2F3032333536383A3B3DDB
:100210003E4042434547494A4C4E50515355575929
:100220005A5C5E6062646668696B6D6F7173757746
:10023000797B7D7F81838587898A8C8E9092949645
:10024000989A9C9E9FA1A3A5A7A8AAACAEAFB1B354
:10025000B4B6B8B9BBBCBEBFC1C2C3C5C6C7C9CAA4
:10026000CBCCCDCED0D1D2D2D3D4D5D6D7D7D8D966
:10027000D9DADADBDBDBDCDCDCDCDCDDDDDDDDDCC4
:10028000DCDCDCDCDBDBDBDADAD9D9D8D7D7D6D5D6
:10029000D4D3D2D2D1D0CECDCCCBCAC9C7C6C5C398
:1002A000C2C1BFBEBCBBB9B8B6B4B3B1AFAEACAAE5
:1002B000A8A7A5A3A19F9E9C9A98969492908E8C95
:1002C0008A89878583817F7D7B79777573716F6D6F
:1002D0006B6968666462605E5C5A59575553515049
:1002E0004E4C4A4947454342403E3D3B3A383635FD
:1002F0003332302F2D2C2A292826252322FFAA7FAE
:100300005540000101010101010101010202020247
:1003100002020202020303030303030303040404AF
:100320000404040405050505050606060606070778
:1003300007070708080808090909090A0A0A0B0B30
:100340000B0C0C0C0D0D0D0E0E0E0F0F0F101011CF
:100350001111121213131414151516161717181855
:1003600019191A1A1B1B1C1D1D1E1E1F20202122BD
:1003700022232424252626272829292A2B2C2D2D03
:100380002E2F30313232333435363738393A3B3C20
:100390003D3E3F404142434445464748494A4C4D13
:1003A0004E4F50515354555658595A5B5D5E5F61DC
:1003B0006264656668696B6C6D6F7072737577786F
:1003C0007A7B7D7E8082838587888A8C8E8F9193CD
:1003D0009596989A9C9EA0A2A3A5A7A9ABADAFB1F4
:1003E000B3B5B7BABCBEC0C2C4C6C9CBCDCFD1D4D9
:1003F000D6D8DBDDDFE2E4E7E9EBEEF0F3F5F8FA7F
:10040000FDFFFD377A585A000004E6D6B4460200D4
:10041000210116000000742FE5A3E001AA00C85DC9
:10042000003D8889C65436C3174FE4E9ACE26FF249
:10043000876D2C764130AFC756DDDC4BCBD600EB59
:100440001C83B19CD9A67E51B58ABE9E9BC589E608
:10045000515D75A67DAAA7223BA06F6D8B81D97EC9
:10046000A2912D16ABC031180C13FCD641C8135BFA
:1004700074FE82FCAC450FC1F181B920D68AB1B3BC
:100480008F8C6478AB2AA35DAD3ED49A9E9789AADF
:10049000B9AA828171D45B7C8CBC9EFB6DEFC2C912
:1004A000822719BB399DC78CBE001D35C7BDF9F029
:1004B0003B03E0FC58F4E7E78FB2B166A0FB9E85F2
:1004C0000EB9C773D521750E129BD078087CAB414D
:1004D000A573D543774E25F8AF39AE98D53261452F
:1004E000749E46028E5146444900694250FA8EA6D7
:1004F000EA3F0001E401AB030000A484CCEBB1C4EB
:1005000067FB020000000004595AAA00A9004E002F
:100510004B0001000100010001001C03760069008E
:1005200061006C003A00660036003400630032005F
:1005300062003300630000000E035900650065008F
:1005400068006100770000001203730071007500FD
:100550006100730068006B0062000000040309047E
:1005600009025B00030100A0FA0904000001030175
:100570000100092111010001224000070581030843
:10058000000A090401000203000000092111010012
:100590000122220007058203200001070503032032
:1005A00000010904020001030000000921110100FB
:1005B000012232000705840320000A120110010005
:1005C000000008515358540001010203010660FF66
:1005D0000961A1010962150026FF009520750881B7
:1005E000020963150026FF00952075089102C005D9
:1005F000010980A101850319012AB700150126B759
:1006000000950175108100C0050C0901A101850448
:1006100019012AA002150126A0029501751081007A
:10062000C005010906A101050719E029E715002504
:100630000195087501810295017508810105071969
:100640000029FF150026FF009506750881000508A2
:10065000190129059505750191029501750391010F
:10066000C00011241FBECFEFDAE0DEBFCDBF04B65D
:1006700003FE27C08091D5029091D602A091D702A7
:10068000B091D8028730904BA740B04BD1F4109274
:10069000D5021092D6021092D7021092D80214BE40
:1006A00084B7877F84BF0FB6F894A89580916000C7
:1006B000886180936000109260000FBEE0E0F8E374
:1006C000099511E0A0E0B1E0E4EBFEE502C0059081
:1006D0000D92A83EB107D9F722E0A8EEB1E001C023
:1006E0001D92A53DB207E1F70E94C4270C94142F78
:1006F0000C94000088322DE5920729F089329D453F
:1007000059F081E00895FB0182818823D1F380ECC8
:1007100090E00E944E06F5CFFB018281882389F389
:100720008CEA90E0F6CFCF93DF939C013A952115A8
:100730003F4168F5EC01CC27D170DC01AA27B270EB
:10074000AC01442754709C012227387094FF11C0DB
:1007500080E1CD2B09F480E0AB2B09F08062452BC2
:1007600009F08064232B09F08068FB01DF91CF91B1
:10077000099481E0CD2B09F480E0AB2B09F0826075
:10078000452B09F08460232B81F38860EECFDF9145
:10079000CF910895CF93DF93EC01805E9109089784
:1007A00020F06DED7DE1209711F465E87BE1CE014D
:1007B0000E9493038C2FDF91CF910C94F81ACF9362
:1007C000DF93EC010E943E1BCE01805E91090897E9
:1007D00020F064EE7DE1209711F46CE87BE1CE011E
:1007E000DF91CF910C94930381E008950C947A03E8
:1007F00008950C94F8031F93CF93DF9300D000D09B
:100800000F92CDB7DEB749835A836B8330913E0296
:1008100089819A8131111DC06623B9F02223A9F084
:100820000E94E722182F682F89819A810E949322C3
:1008300069817A81812F0F900F900F900F900F9008
:10084000DF91CF911F910C945F160E94BF22182F49
:10085000EFCF0E94E72269817A81EDCFFC01262F3C
:10086000408151816281738184810C94FB03CF9319
:10087000DF93EC0160E00E942E04BE01DF91CF9176
:100880000C94F9038F929F92AF92BF92CF92DF9216
:10089000EF92FF920F931F936B017C0181E090E038
:1008A000A0E0B0E04C015D0104C0880C991CAA1CBA
:1008B000BB1C4A95D2F7B501A4014C015D0104C0EF
:1008C000880C991CAA1CBB1C2A95D2F748295929C7
:1008D0006A297B2904C0880F991FAA1FBB1F0A958C
:1008E000D2F78A019B010C211D212E213F210417E3
:1008F00015072607370789F48C299D29AE29BF29BA
:10090000BC01CD011F910F91FF90EF90DF90CF9030
:10091000BF90AF909F908F90089580959095A095EF
:10092000B0958C219D21AE21BF21EACF0F93382FA6
:10093000262F6091810270918202809183029091B2
:100940008402042F432F0E9442040F910C94D12162
:100950000E9415260E943324811102C00E94D724D0
:100960000C9453080C94560808950E94FD1D0E9493
:10097000B4042FEF84E39CE0215080409040E1F7E5
:1009800000C000000C94FD250F931F93CF93DF93BD
:100990008C01EB010E94C911882389F1BE01C801B5
:1009A0000E94F603882359F1BE01C8010E94E41792
:1009B000882329F1BE01C8010E9436188823F9F066
:1009C000BE01C8010E9459198823C9F0BE01C8019F
:1009D0000E948010882399F08A81882339F00115BC
:1009E0008CE5180751F00E3D1C4579F0CE01DF91E2
:1009F000CF911F910F910C94F4030E94B50480E0F5
:100A0000DF91CF911F910F9108950E94D724F7CFC6
:100A1000CF93DF93EC0161E00E942E04BE01DF91D1
:100A2000CF910C94C404DF92EF92FF920F931F9327
:100A3000CF93DF93E82FF0E0E85CFE4FD490282FAF
:100A400026952695269530E0F901E852FE4F04914F
:100A5000877010E0082E02C0159507950A94E2F7FA
:100A600001701127F901E853FE4FE490F12C082E94
:100A700002C0F594E7940A94E2F791E0E922FF249A
:100A8000F901E854FE4FC491D0E002C0D595C79556
:100A90008A95E2F7C170DD270115110519F081EE85
:100AA0000E94F81AE114F10419F086EE0E94F81A77
:100AB0008D2D0E947D1BEF2819F086EE0E943E1BB3
:100AC000012B19F081EE0E943E1BCD2B51F08CE2E0
:100AD000DF91CF911F910F91FF90EF90DF900C94D9
:100AE0007D1BDF91CF911F910F91FF90EF90DF90D1
:100AF0000895EF92FF920F931F93CF93DF93EC0132
:100B0000162F0AE08881882309F454C0813009F047
:100B10004EC08981813099F47E0122E0E20EF11C01
:100B20008A810E947D1BE7012196812F815050F31D
:100B3000EFE9FFE03197F1F700C00000F7CF823016
:100B400041F47E0182E0E80EF11C8A810E94F81ACD
:100B5000EACF833041F47E01E2E0EE0EF11C8A819F
:100B60000E943E1BE0CF843011F02196DDCF2A8118
:100B7000229690E080E0AE014F5F5F4F2053330B31
:100B80002A30310548F0019778F2EFE9FFE031971C
:100B9000F1F700C00000F7CF089FB001099F700D6A
:100BA0001124C901860F971F2981EA01E4CF0E9411
:100BB0001305BACFDF91CF911F910F91FF90EF9066
:100BC000089560E00C947905EF92FF920F931F93C4
:100BD000CF93DF938C01F62E8AE0E82EF801849102
:100BE000882309F454C0813009F04DC0E8012196F2
:100BF000FE018491813091F42196FE0184910E943E
:100C00007D1B8E010F5F1F4F8F2D815038F3EFE951
:100C1000FFE03197F1F700C00000F7CF823039F4E0
:100C2000E8012296FE0184910E94F81AEACF8330EF
:100C300039F4E8012296FE0184910E943E1BE1CF27
:100C40008430F9F6E8012296FE01249190E080E0DC
:100C5000FE0131962053330B2A30310548F00197BD
:100C600080F2EFE9FFE03197F1F700C00000F7CF25
:100C7000E89EA001E99E500D1124C901840F951F23
:100C80002491EF01E5CF0E941305E801BACFDF916F
:100C9000CF911F910F91FF90EF90089560E00C9419
:100CA000E40508950C94510681E008950C945406CF
:100CB000CF93C82F0E9452068C2FCF910C945606CA
:100CC00090E080E008950895FC01EE0FFF1FE851C9
:100CD000FE4F859194910895CF93DF930E945F1604
:100CE0000E947807EC01811520E5920708F041C0C9
:100CF000811530E4930708F0B4C0803E910518F5E3
:100D0000803C910508F09DC0883A910570F4853AC1
:100D1000910508F08EC081309105F9F00097E9F057
:100D20000497D8F4D0E0C0E018C08F3B9105D0F70D
:100D3000C85AD0E0CC0FDD1FC25DDE4F0990D881CC
:100D4000C02DD4640AC08115904258F4C11581E0C9
:100D5000D80718F4C83ED10528F7CE01DF91CF910E
:100D60000895C11590E3D90708F071C0CE019F70B6
:100D70006AC0811525E5920758F5811534E593077A
:100D800008F09EC0811542E5940750F4C11581E535
:100D9000D80708F469C0DC2FCC27C16FD06ADDCF3B
:100DA000982F969596959E0123703327C115D345AC
:100DB00008F077C0C1E0D0E002C0CC0FDD1F2A955B
:100DC000E2F720E2929FC0011124C82BD92B67C003
:100DD000C11589E5D807A8F4C11598E5D90708F029
:100DE00074C0C11526E5D20708F09CCF8C2F0E9455
:100DF0000F08C82FD0E0DC2FCC27CC27DF71D062C2
:100E0000ACCFC1153AE5D30708F464C0CE019056C3
:100E10008115904208F086CF8D2F8F710E940F08A8
:100E200090E0982F882788279F719C012C2BE9013F
:100E3000E6CFC55AD0E0C45ADE4FC881D0E0D064B6
:100E40008CCF805C91090E946406EC0186CFCE01B4
:100E50009927D3FF03C0EC01D86C7FCFEC01D06C95
:100E60007CCFDF70D06A79CFCE01E4E0969587958C
:100E7000EA95E1F783702C2F26952695237090E252
:100E8000299F90011124382B8C2F8370C1E0D0E072
:100E900002C0CC0FDD1F8A95E2F7C22BD32BDC6892
:100EA0005CCFC1E0D0E002C0CC0FDD1F2A95E2F795
:100EB00030E2939FC0011124C82BD92BDA684DCFA3
:100EC000D82FCC27C46FD06A48CFDC2FCC27C06F77
:100ED000D06A43CF8C2F8F700E940F0834E0D695D4
:100EE000C7953A95E1F7CF709C2FEC01D06935CFCB
:100EF00082389105B1F1B0F48133910509F475C0E0
:100F000048F48932910509F469C08A32910509F4DF
:100F100073C008958533910509F459C0893391054B
:100F200001F10895833E9105A9F138F4803E9105C1
:100F3000F9F0823E910549F10895863E9105A9F1A7
:100F4000873E9105C9F1843E910519F52091C702AC
:100F500021FF1FC08091C60284FD14C087EE90E07F
:100F600008952091C6022370A1F080EE90E00895CC
:100F70002091C60220FD47C03091C70230FF09C052
:100F800024FF44C090E080E004C02091C60222FD0E
:100F9000F7CF08952091C60222FD3BC03091C702D1
:100FA00030FDE3CF24FFF5CFEDCF2091C60223FF24
:100FB000F0CF24FDE7CFD2CF2091C60223FD2CC075
:100FC0003091C70231FFEECF84EE90E0089520917A
:100FD000C60225FFDECF89E290E008952091C60287
:100FE00025FFD7CF85E390E008952091C60226FF24
:100FF000D0CF8AE290E008952091C60226FFC9CFA3
:1010000081E390E0089589E390E0089583EE90E015
:10101000089582EE90E0089586EE90E00895909114
:10102000C60292FF06C0282F28712830F9F4877F66
:10103000846093FF06C0282F28712831F1F4877E41
:1010400084612091C70220FF06C0382F38713830E4
:10105000D9F4877F816021FF06C0282F28712831AD
:10106000D1F4877E816194FD877E0895282F2471B5
:101070002430F9F68B7F8860DCCF282F247124314F
:1010800001F78B7E8861DDCF382F3171313019F750
:101090008E7F8860E0CF282F2171213121F78E7E4D
:1010A0008861E1CF08950C94520808950C94550876
:1010B000E82FF0E0EE0FFF1FEC55FD4F808191818E
:1010C00008950895AFE5B1E041E050E08D918F3F84
:1010D00091F0E82FE295EF70F0E061A18F709A0136
:1010E00001C0220F8A95EAF7922F9095962391A33B
:1010F00082A1822B82A381E0AD36B80739F7109226
:10110000A3021092A2021092A5021092A40281E002
:101110000E94D3080C94A804CF93DF93AFE5B1E00D
:1011200070E060E050E040E0C1E0D0E02D912F3F62
:10113000B9F0E22FE295EF70F0E080A190E02F701F
:1011400002C0959587952A95E2F780FD29C0CE01CA
:10115000062E02C0880F991F0A94E2F7482B592BDC
:101160006F5F7F4F6E30710509F78091A2029091F9
:10117000A302C0E08417950729F05093A30240937F
:10118000A202C1E02C2F41E064EA72E082EA92E020
:101190000E94D4080E94B2048C2FDF91CF91089551
:1011A00090E080E0DBCF0895FF920F931F93CF93E1
:1011B000DF93F82E092F162FD72FC42F222349F0A3
:1011C00081E08093EC010E94B2259093EB01809323
:1011D000EA018091EC018823A1F08091EA019091CD
:1011E000EB010E94CA25069760F0EF2DF02FA12F8A
:1011F000BD2F90E080E0D0E08C179D0744F0109266
:10120000EC01DF91CF911F910F91FF9008952191F3
:1012100031912D933D930196EFCFEF92FF920F9373
:101220001F93CF93DF93EB01E82FD11110C044231C
:1012300021F0F0E0EE5FFC4FE4916E2F7E2F8E2FB9
:10124000DF91CF911F910F91FF90EF9008950D2F97
:1012500010E0282F30E0442329F02E5F3C4FF901A5
:10126000249130E0F6E0CF9FC0011124EFEFF0E0D1
:10127000BF010E94AC2DAB018C2F90E0880F991F0D
:10128000A5E5A49FB001A59F700D1124861B970BA7
:10129000982F990F980FBF01601B710B629FD001AF
:1012A000639FB00D729FB00D11248B2F9D9FB001D5
:1012B0001124672F7727EF01C61BD70BBE01629F52
:1012C000E001639FD00D729FD00D11247F01E91AB8
:1012D000F108E09EB001E19E700DF09E700D1124AA
:1012E000672F7727E61BF70BE29F8001E39F100D26
:1012F000F29F100D1124E12F722F4230510599F009
:1013000048F44115510569F04130510581F0EB2F4A
:101310008D2F07C04430510569F080F046305105EB
:10132000B1F76E2F8DCFE22F7B2F812FFACFE22FD7
:101330007D2FF7CFEB2F822F712FF3CF7B2F822FB3
:10134000ED2FEFCF41E00C940D0908950C94A20904
:10135000CF93DF93762FE901682F842F0E94A6098F
:10136000798368838A83DF91CF9108958091A60263
:10137000982F9E7F29F4817082608093A602089541
:101380008635E8F381708465F8CF88E090E00C94AE
:10139000B52ECF92DF92EF92FF926B017C010E94FB
:1013A000B609B701A60188E090E0FF90EF90DF90CA
:1013B000CF900C94D32E6091A6027091A7028091D9
:1013C000A8029091A9020C94C909E6EAF2E083E030
:1013D000808311828FEF8283838314826081718185
:1013E000828193810C94C9098091A60280FF02C07A
:1013F0008695089580E008959091AA02933018F49C
:101400009F5F9093AA02882351F06091A602709189
:10141000A7028091A8029091A9020C94C90908958D
:1014200081E00C94FC099091AA02992319F0915043
:101430009093AA02882351F06091A6027091A702AE
:101440008091A8029091A9020C94C909089581E0A5
:101450000C94130A8091AA0208958093AA0266232D
:1014600051F06091A6027091A7028091A80290911C
:10147000A9020C94C909089560E00C942D0A80918A
:10148000A70208958091A80208958091A902089565
:1014900070E00C94F010609108018091A60280FF2A
:1014A0000AC08091070123E0829FC0011124855565
:1014B0009D4F0C94480A8091090190910A0123E004
:1014C000829FF0011124E555FD4F891750F71182D5
:1014D000108212828F5F3396F8CF9091A60290FF10
:1014E00014C09091090120910A0133E0939FF0010B
:1014F0001124E555FD4F921710F00C944B0A81838F
:10150000608342839F5F3396F6CF0895CF93DF9336
:1015100000D00F92CDB7DEB79091A60290FF0AC01F
:101520009E012F5F3F4F0E94A8094B8169818A81EC
:101530000E946D0A0F900F900F90DF91CF91089548
:10154000CF93DF93EC01EC81F0E0E350FE4F449148
:10155000E6EAF2E0628181810E94860A8C818F5FD7
:101560008C83DF91CF910895CF93DF93EC01E6EA6E
:10157000F2E0438162818C810E94860A8C818F5FB8
:101580008C83DF91CF9108950F931F93CF93DF93B7
:1015900000D00F92CDB7DEB78C018091ED018111A3
:1015A0000AC09E012F5F3F4F4FEF6FEF0E94A809C7
:1015B0008A818093ED01F8016481613069F0809146
:1015C000ED0140E0662361F040E0623011F44091AB
:1015D000ED0180E060E004C06091ED0140E080E05A
:1015E0000E946D0AF801848190E0019663E070E04A
:1015F0000E94C02D84830F900F900F90DF91CF91A8
:101600001F910F910895AF92BF92CF92DF92EF9208
:10161000FF920F931F93CF93DF9300D00F92CDB71C
:10162000DEB7182FF62E042FE22E9091A60290FF1F
:1016300029C0E92FE695AE2FB0E0A359BE4F8C919B
:1016400080931C029E7F923059F59E012F5F3F4F81
:10165000812F0E94A8094B8169818A810E946D0AAD
:101660001093A702F092A8020093A902EE2051F075
:101670006091A6027091A7028091A8029091A902A0
:101680000E94C9090F900F900F90DF91CF911F9189
:101690000F91FF90EF90DF90CF90BF90AF900895A3
:1016A000823019F40091A902DBCF863019F4109131
:1016B000A702D6CF8930D9F3893191F6E9518E2F1F
:1016C0008170D82EE695F0E0E350FD4FA590B490E0
:1016D000C12CBB2460910B01C61618F00E944B0A66
:1016E000BFCF2C2D30E0A29EC001A39E900DB29ED4
:1016F000900D112470E00E94AC2D812FD11013C0E9
:10170000860F40910901420F532F511D9A01220F5C
:10171000331F240F351F25553D4F402F6F2D0E943D
:10172000A809C394D7CF861BECCFE6EAF2E09181FB
:10173000282F4381628188E0890F0C94030B81E09C
:101740000C94950BE6EAF2E09181282F43816281A7
:1017500088EF890F0C94030B81E00C94A20BE6EA4E
:10176000F2E0628128E0620F08F46FEF282F4381D6
:1017700081810C94030B81E00C94AF0BE6EAF2E05C
:10178000628128E0621B08F460E0282F4381818198
:101790000C94030B81E00C94BE0BE6EAF2E043816B
:1017A00028E0420F08F44FEF282F628181810C94CA
:1017B000030B81E00C94CD0BE6EAF2E0438128E0D4
:1017C000421B08F440E0282F628181810C94030BB6
:1017D00081E00C94DC0B20E00C94030BEF92FF9261
:1017E0001F93CF93DF93EC0110E0EE24EA94F12CE9
:1017F00060910B01161770F00E944B0A9A818C8140
:1018000090FF27C08F5F8C83DF91CF911F91FF9056
:10181000EF90089520910901422F410F5527551F40
:10182000CA019A01220F331F280F391F25553D4F3A
:1018300070E0C7010E94C02D962F8C814091A902B3
:101840006091A802199F800D11240E94A8091F5FB2
:10185000CFCF8150D8CFAF92BF92CF92DF92EF928D
:10186000FF920F931F93CF93DF93FC0182810FEFC1
:1018700080FF01E010E047E0A42E80910B011817D3
:10188000C8F00E944B0A8091EF01013009F055C069
:10189000811102C080910B0181508093EF01DF9193
:1018A000CF911F910F91FF90EF90DF90CF90BF905D
:1018B000AF900895C0910901C12ED12CCC0DDD2D22
:1018C000D11DCE01880F991FC80FD91FC555DD4FF7
:1018D000198218821A8234E0E32EF12CB12C809107
:1018E000EF018B0D88301CF16A2D0E949E2D892FEF
:1018F000082E000C990BC816D90691F48091A90204
:101900008E9DA0018F9D500D11245595479555959D
:1019100047959E016091A8028091A7020E94A809A4
:10192000B00EF1E0EF1AF108D1F61F5FA6CF87FFE6
:10193000DFCF90910B01890FDBCF90E00196609192
:101940000B0170E00E94C02DA8CF0F931F93CF937F
:10195000DF938091090190910A0123E0829FF001B9
:101960001124E555FD4F891740F1C0E0D3E06091A7
:101970000B01C61740F10E944B0A2091050180918E
:10198000EE01820F8093EE0190910601920F9093E9
:101990000601191654F4082E000C990B40910B0106
:1019A0004150550B841795071CF021952093050194
:1019B000DF91CF911F910F910895118210821282B1
:1019C0008F5F3396D0CF0C2F10E070E0C8010E94DB
:1019D000C02D20910901820F482F50E02091EE0187
:1019E000022E000C330B02171307BCF020910601E6
:1019F000022E000C330B201731077CF08D9F9001D5
:101A0000112425553D4F4091A9026091A802809173
:101A1000A7020E94A809CF5FAACFFA01EE0FFF1F0D
:101A2000E40FF51FE555FD4F118210821282F3CFAE
:101A30008F929F92AF92BF92CF92DF92EF92FF92DE
:101A40000F931F93CF93DF93EC014C81042F10E091
:101A50009801D8010E940B2E9B01AC010E94212EFF
:101A60004B015C01E0E2F0E0E01BF10BA5E5B0E02A
:101A7000AC019B010E94212E6B017C019F01DF01C3
:101A80000E94032E9B01AC010E942C2E9B01AC01F5
:101A9000280D391D4A1D5B1DC701B6010E94D42DBA
:101AA000F22E822F90E039E23F1560F143E0249F4F
:101AB0009001112435952795122F109500E085E5AA
:101AC000E82EEF1880910B01081758F10E944B0A7D
:101AD0009C8181E0992319F0903219F48FEF809363
:101AE000040180910401890F8C83DF91CF911F91B4
:101AF0000F91FF90EF90DF90CF90BF90AF909F90AD
:101B00008F90089525E530E0B901681B790B9B01A2
:101B1000220F331F260F371F37FFCCCF2F5F3F4FCA
:101B2000C9CF8E2D01FD8F2D20910901622F600FED
:101B30007727771F9B01220F331F260F371F25554D
:101B40003D4F412F6091A8020E94A8090F5FBACFB4
:101B50000F931F93CF93DF93EC0110E000E090917F
:101B60000B019017110609F06CF40E944B0A8C814E
:101B700090E00196817099278C83DF91CF911F911E
:101B80000F91089520910901A801420F511D9A015A
:101B9000220F331F240F351F25553D4F4C81609177
:101BA000A8028091A70296959017110651F04CF06B
:101BB000442349F04091A9020E94A8090F5F1F4FDA
:101BC000CECF4423B9F340E0F7CF4F925F926F92AC
:101BD0007F928F929F92AF92BF92CF92DF92EF92BD
:101BE000FF920F931F93CF93DF93FC016280448099
:101BF00081E08483EDEFF1E07490ECE7F2E0E491B2
:101C0000812C75E0972EF2E0CF2EDD24D394AA2408
:101C1000AA94B12C55245A94E7190E2F10E0809104
:101C20000B01881690F0DF91CF911F910F91FF90DB
:101C3000EF90DF90CF90BF90AF909F908F907F906C
:101C40006F905F904F900C944B0AE82CF12C82E03F
:101C5000861568F09E9CF0019F9CF00D1124E051C8
:101C6000FE4F8091A70280838091A802818341105A
:101C700023C09E9CF0019F9CF00D1124E051FE4F6B
:101C80001382128220910901C701820F911D9C01CC
:101C9000220F331F280F391F25553D4F9E9CF00101
:101CA0009F9CF00D1124E051FE4F428161818081A3
:101CB0000E94A8098394B3CF9E9CE0019F9CD00D05
:101CC0001124C051DE4F8B818823E9F081508B8332
:101CD000859DC00111246C8170E00E94AC2DFB0138
:101CE000FF27E350FE4F8491E82FE719E59DC001DF
:101CF0001124B8010E94AC2D8091A902689FB00107
:101D000011247A83BFCF0E94802E2091A9022695AC
:101D100021582C9DA0012D9D500D1124452F552794
:101D2000841795070CF0AECF82E0861588F40E94E8
:101D3000802EB5010E94C02D88830E94802E2091A4
:101D4000A8022695622F70E00E94C02D280F2983DB
:101D50009E9CF0019F9CF00D1124E051FE4F1282D9
:101D60008091A902893C58F088EC9E9CF0019F9CD0
:101D7000F00D1124E051FE4F8483838383CF84319F
:101D8000A0F784E1F2CFE6EAF2E080818E7F8083E3
:101D900060817181828193810E94C90910921D0224
:101DA0002FEF80E792E0215080409040E1F700C0A3
:101DB00000000C944B0AE6EAF2E080818E7F80837B
:101DC00010921D022FEF80E792E02150804090405A
:101DD000E1F700C000000C944B0A10921D028091A4
:101DE0001A0281110AC081E080931A028091A60232
:101DF0008170809319020C94DB0E08956091A60205
:101E0000669570E04BE050E08CE091E00E94992EE6
:101E1000892B19F481E080931D020E94B2259093D2
:101E200014028093130208959091A60290FF35C08A
:101E30009170811128C092609093A602662351F0A0
:101E40006091A6027091A7028091A8029091A902C8
:101E50000E94C9096091A602669570E04BE050E0CF
:101E60008CE091E00E94992E892BA1F010921D0226
:101E700081E0809316024091A9026091A8028091AE
:101E8000A7020C94EB0B8B3210F09465D5CF880F22
:101E9000982BD2CF0E94FE0EEBCF0895682F909121
:101EA000A602969581E0890F8B3208F081E00C94B0
:101EB000140F81E00C944E0F682F9091A602969516
:101EC0008FEF890F09F48AE20C94140F81E00C94CF
:101ED0005C0F61E00C94140FE6EAF2E0808181600F
:101EE000808386950C94690F8091A60280FD0C94E6
:101EF000C30E0C946C0F60E00C94140F80911B02C5
:101F000081112EC00E943324811104C00E94D72465
:101F10000E94E5090E94C5096093A6027093A7027A
:101F20008093A8029093A9026E7F61F40E94E50954
:101F30000E94C5096093A6027093A7028093A8022D
:101F40009093A9020E94B60910921D028091A602E8
:101F500080FF03C086950E947B0F81E080931B0267
:101F60000895E6EAF2E080818160808386950C9492
:101F70007B0F10921A028091190281110E94B10FF9
:101F80000C94FE0E0F931F93CF93DF9380911D024D
:101F9000882309F496C080911C02E091A602E69580
:101FA000E81BE0931502823091F5F0E0E750FE4F18
:101FB000E491CE2FD0E000EA1AE080911602882347
:101FC00061F0109216020E94B22590931402809341
:101FD000130210921802109217020E94B225E0918B
:101FE0001302F09114028E1B9F0B8F3F9F4708F046
:101FF00068C0EC0FFD1FF0931402E093130283E11D
:1020000092E0F801DF91CF911F910F9109948630F2
:1020100049F4F0E0EA50FE4FE491CE2FD0E004EB1B
:102020001AE0CBCF893051F4E695F0E0ED50FE4F49
:10203000E491CE2FD0E00EEE1BE0BFCF8F3051F4F5
:10204000E695F0E0E051FE4FE491CE2FD0E00BE2B8
:102050001CE0B3CF853149F4F0E0E351FE4FE49149
:10206000CE2FD0E005EA1CE0A8CFC8E2D0E008E11E
:102070001DE0883109F4A1CF833239F4EBEEF1E0B1
:10208000C591D49104EC1AE098CFC4EFD1E008EAEE
:102090001DE0843209F491CFC0EDD7E005EA19E0E4
:1020A000853209F08ACF8E2F63E00E94922DE92FAE
:1020B000F0E0E851FE4FE491CE2FD0E005EE1DE0B8
:1020C0007CCFDF91CF911F910F910895FA0181117B
:1020D00001C0FB010994CF93DF93C82FD62F0E9434
:1020E000F4098C1740F00E94F4098D1720F4DF9159
:1020F000CF910C94590F8C2FDF91CF910C94690FD5
:102100000F931F93CF938C01FB01C281CC2309F461
:1021100065C00E947C238272F801E25CFC45E431D8
:10212000F10538F4EA5EF04D0C94F62D0E94740F20
:10213000C0E08C2FCF911F910F91089546E65FE08C
:1021400069E57FE00E946610F3CF49E55FE066E64F
:102150007FE0F8CF4CEA5BE06FE97BE0F3CF4FE93B
:102160005BE06CEA7BE0EECF4AEC5BE06BEB7BE0A4
:10217000E9CF4BEB5BE06AEC7BE0E4CF48EE5BE061
:1021800069ED7BE0DFCF49ED5BE068EE7BE0DACF25
:1021900047E25AE060E17AE0D5CF40E15AE067E2F9
:1021A0007AE0D0CF81E00E94690FC2CF65E082E083
:1021B0000E946B10BDCF68E086E0FACF6EE089E048
:1021C000F7CF64E18FE0F4CF67E185E1F1CF88E1FB
:1021D000EACF62E289E1ECCF83E2E5CFC1E0A9CFAB
:1021E000229A45B14B7F55B15460EFB7F8949B01EB
:1021F000220F331F260F371F280F391F28173907C3
:1022000041F4EFBF8FE594E00197F1F700C00000C3
:102210000895DC016D91CD0178E055B9000000C052
:1022200067FF45B9660F000000C000C000C045B997
:1022300000C07A9591F7E2CF5198599A5098589AE0
:1022400089B186958170489905C090E0892B80936B
:102250002002089592E0FACFE0912002EE0FEE0FF7
:10226000E093200229B121FB882780F9489937C0E3
:1022700020E0822BE82BE0932002EF70F0E0E8569C
:10228000FE4F808190911F02890F80931F0220E0F2
:10229000843054F080911E028F5F80931E0260E0B4
:1022A00080E00E94B61421E080911F028D3F54F41B
:1022B00080911E02815080931E0261E080E00E94A6
:1022C000B61421E080911F02082E000C990B64E0E7
:1022D00070E00E94C02D80931F02822F089522E09B
:1022E00030E0C7CF82E290E00E94AD2E863989F4BB
:1022F00083E290E00E94AD2E833559F484E290E0B1
:102300000E94AD2E91E0843709F090E0892F817012
:10231000089580E0FCCFCF93C82F6FEF811166E95D
:1023200082E290E00E94C12E6FEFC11163E583E26B
:1023300090E00E94C12E6FEFC11164E784E290E04B
:10234000CF910C94C12E80E00E948B110C942D240F
:10235000089585E290E00E94AD2E682F70E090E035
:1023600080E0089585E290E00C94C12E0E94A811AF
:102370000E94721181110CC060E070E0CB010E94DC
:10238000B2110E94B4150E94D21681E00C948B11F8
:102390000895CF93FB01C281CC2309F19C01225106
:1023A0003F452031310520F582510E94E216C0E000
:1023B0008C2FCF91089581E00E94F72143E062E0E5
:1023C00081E00E949604F3CF81E00E94182243E04E
:1023D00062E081E00E949604EBCF82E0F6CF80318C
:1023E000FFE59F0789F381319F45B9F3C1E0E0CF55
:1023F0008031EFE59E07F9F281319F45C9F682E011
:10240000DBCF2FEFFC0120830895CF93DF93EC0106
:1024100088818138A9F028F4803871F0DF91CF915C
:102420000895823881F08338C9F70E943F0A898372
:102430000E94420A8A83F2CF0E94450A8983EECF26
:102440000E94F409FBCF0E942A0AF8CFCF93DF93B2
:10245000EC0188818138E1F028F4803869F0DF915F
:10246000CF910895823811F18338C9F70E94450A47
:10247000482F6A81898108C0D9810E94420AC82FE9
:102480000E943F0A4D2F6C2FDF91CF910C94EB0BE4
:1024900089810E947B0F8981811104C0DF91CF91D6
:1024A0000C94DB0EDF91CF910C94B10F8981DF91F9
:1024B000CF910C943C0A1F93CF93DF93EC01162F1E
:1024C00098812091230230912402232B79F09E3FA2
:1024D00009F068C08981833020F08550833008F08E
:1024E00061C0612FCE010E94BC135CC09E012F5FB2
:1024F0003F4F993009F4ADC0E8F4943009F48CC032
:1025000058F4923009F455C008F07AC0913009F4BB
:1025100046C08FEF888346C0963009F493C008F414
:1025200086C0973009F491C0983099F7C9010E948C
:10253000051238C0903109F4A8C028F59D3009F47F
:102540008BC030F49C3029F70E947B1689832AC007
:102550009E3009F489C09F30E1F680911701909177
:102560001801892BF9F06B8170E06D317105D0F4A1
:1025700089819A81AE014C5F5F4F98278927982700
:102580000E94A7160FC0923109F485C008F480C0DC
:10259000933109F491C09E3F09F0BBCFA2CF1982BD
:1025A00089E08A83612FCE01DF91CF911F910C9436
:1025B000B9268981823069F0833071F08130D9F495
:1025C0000E94BE250E94FC2D6A837B838C839D83A1
:1025D000E9CF0E94A911F6CF8091170190911801BF
:1025E000892B01F380E00E945808982789279827B3
:1025F0009B838A83D7CF612FCE010E940112D2CF55
:1026000089818230C1F76A817B818C819D810E94A2
:10261000FC2D0E94B211C6CF4B816A8189810E9434
:10262000FE149827892798279D838C83BBCF2C8104
:102630003D813227232732274B816A8189810E947D
:102640002815B0CF0E94B415ADCFC9010E94261243
:10265000A9CF0E94DB09A6CF0E947D169827892763
:1026600098279A8389839ECF6B8170E06D317105C5
:1026700008F098CF89819A81AE014C5F5F4F98270F
:10268000892798270E9480168DCF0E94D2168ACF64
:102690000E94FC145BCF6B8170E06D31710508F016
:1026A00081CF89819A81AE014C5F5F4F982789273E
:1026B00098270E94071676CF6B8170E06D31710507
:1026C00008F070CF89819A81AE014C5F5F4F9827E7
:1026D000892798270E942C1665CF0F931F93CF93BD
:1026E000DF9300D000D000D0CDB7DEB78C0190933F
:1026F000C1028093C0021B821C821D821E828EEF4B
:1027000089838A8381E08B830E94B22581609D83C7
:102710008C83011580E2180708F5C8010E94CA03DE
:102720008FE39CE90197F1F700C000000E94B225F9
:1027300081609D838C831B82011590E21907A8F4A8
:10274000C8010E94DF0326960FB6F894DEBF0FBEC5
:10275000CDBFDF91CF911F910F910895BE016F5FA3
:102760007F4FC8010E94C404DBCFBE016F5F7F4F63
:10277000C8010E94C404E7CFEF92FF920F931F930A
:10278000CF93DF93CDB7DEB728970FB6F894DEBFAF
:102790000FBECDBF8C01603219F5DC011196EC91B2
:1027A0001197E830E8F4F0E0E65DF04D0C94F62D7A
:1027B00088E0E6E2F1E0DE01119601900D928A9543
:1027C000E1F783E0F801808311821282138288E0AE
:1027D000FE013196D801149601900D928A95E1F789
:1027E00028960FB6F894DEBF0FBECDBFDF91CF9114
:1027F0001F910F91FF90EF90089588E08C9381E0F6
:1028000011968C93119712961C92129713961C9204
:10281000E7CFFC018381682F70E0762F66278281E5
:10282000860F972F911D092E000CAA0BBB0B25E0DC
:10283000880F991FAA1FBB1F2A95D1F7AC01BD01B4
:10284000405E5F4F6F4F7F4F481759076A077B07FE
:1028500038F28830F1E09F07A105B10508F649304C
:1028600021E052076105710520F048E051E060E089
:1028700070E0481B590BBC016E5F7B4FC801289666
:102880000FB6F894DEBF0FBECDBFDF91CF911F9181
:102890000F91FF90EF900C94902E1296FC9012974F
:1028A0001396EC9040E06E2D8F2D0E9458159827BE
:1028B00089279827F8019183808341E06E2D8F2D21
:1028C0000E945815982789279827D80113969C931A
:1028D0008E93129785CFFC012581368132272327DD
:1028E000322744816381828128960FB6F894DEBF37
:1028F0000FBECDBFDF91CF911F910F91FF90EF9051
:102900000C94831540E250E06FEF70E00E94A62E19
:1029100080911701D8018C938091230211968C939A
:102920005FCF81E090E0909324028093230282E3C2
:1029300090E0909322028093210228960FB6F8949B
:10294000DEBF0FBECDBFDF91CF911F910F91FF90E2
:10295000EF900C94B22580911701F801808380914B
:10296000230281838091210282833ACFCF92DF922A
:10297000EF92FF920F931F93CF93DF93182F062FA1
:10298000C0908102D0908202E0908302F090840295
:102990008091850290918602A0918702B091880271
:1029A000C82AD92AEA2AFB2ACFE1D0E0D701C601FA
:1029B0000C2E04C0B695A795979587950A94D2F7E3
:1029C00080FF12C0402F612F8C2F0E94581581303C
:1029D000910551F0DF91CF911F910F91FF90EF90F2
:1029E000DF90CF900C946D13219700F7402F612F4B
:1029F00080E00E945815EECF84E008950F931F9356
:102A0000CF93DF93843008F561111FC04E30E8F496
:102A1000042F10E0000F111F2CE1829F000D111DEB
:102A20001124C80186960E94AD2EC82FD0E0DC2F5D
:102A3000CC27C80187960E94AD2E9E01282BC90184
:102A4000DF91CF911F910F91089590E080E0F8CF32
:102A50000F931F93CF93DF938901843020F5611189
:102A600022C04E3000F521153C4531F4209117016C
:102A700030911801232BB9F0C42FD0E0CC0FDD1F0B
:102A80009CE1899FC00DD11D1124612FCE01869636
:102A90000E94C12E602FCE018796DF91CF911F91AA
:102AA0000F910C94C12EDF91CF911F910F9108953A
:102AB0000F931F93CF93DF93843010F5611120C0E3
:102AC0004230F0F424E0829F8001112450E0440F52
:102AD000551F040F151F0A561F4FC8010E94AD2E27
:102AE000C82FD0E0DC2FCC27C80101960E94AD2E64
:102AF0009E01282BC901DF91CF911F910F9108955D
:102B000090E080E0F8CF0F931F93CF93DF9389017C
:102B1000843028F5611123C0423008F521153C4569
:102B200031F42091170130911801232BC1F094E06A
:102B3000899FE001112450E0440F551FC40FD51F99
:102B4000CA56DF4F612FCE010E94C12E602FCE01E9
:102B50000196DF91CF911F910F910C94C12EDF91BF
:102B6000CF911F910F910895AF92BF92CF92DF92B4
:102B7000EF92FF920F931F93CF93DF93C0901701B3
:102B8000D090180181E090E0909318018093170194
:102B90000AE015E088ECE82E80E0F82EC0E057014E
:102BA000D0E0F501259134914D2F60E08C2F0E94EB
:102BB000281582E0A80EB11CDF5FDE3091F7F80126
:102BC0002591349140E060E08C2F0E948315F8013C
:102BD00032962591349141E060E08C2F0E9483155C
:102BE0000C5F1F4FCF5F8CE1E80EF11CC430B9F6CB
:102BF000D0921801C0921701DF91CF911F910F91D0
:102C0000FF90EF90DF90CF90BF90AF900895EF923C
:102C1000FF920F931F93CF93DF93EC018A017C0106
:102C2000E60EF71ECE018696CE15DF0539F4DF914C
:102C3000CF911F910F91FF90EF900895C037D1056C
:102C400040F40E94AD2EF80180830F5F1F4F219644
:102C5000E9CFF8011082F9CFCF92DF92EF92FF9285
:102C60000F931F93CF93DF938C016A0180379105F7
:102C700080F480E790E0801B910B8617970748F05F
:102C80007801E60EF71EE801CE018696CE15DF0527
:102C900049F4DF91CF911F910F91FF90EF90DF905A
:102CA000CF900895C037D10540F4FE01E01BF10B31
:102CB000EC0DFD1D60810E94C12E2196E5CF462FAF
:102CC0002091230230912402232B91F47E3F39F48A
:102CD0006E3F71F48091C0029091C10208958430DA
:102CE00038F4711105C06E3018F460E00C94FE14D5
:102CF00090E080E0089580E108958AE593E00895EA
:102D0000EF92FF920F931F93CF93DF93EC018A0111
:102D10007C01E60EF71ECE018A559F4FCE15DF05CA
:102D200039F4DF91CF911F910F91FF90EF900895AB
:102D3000CA3523E0D20740F40E94AD2EF80180830B
:102D40000F5F1F4F2196E7CFF8011082F9CFCF9286
:102D5000DF92EF92FF920F931F93CF93DF937C014B
:102D60006A018C01060F171FEC01CE018A559F4F97
:102D7000C017D10749F4DF91CF911F910F91FF90B8
:102D8000EF90DF90CF900895CA3523E0D20740F44A
:102D9000FE01EE19FF09EC0DFD1D60810E94C12EA0
:102DA0002196E3CFCF93DF93C6EAD0E060E0CE0177
:102DB0000E94C12E2196C11584E0D807B9F7DF9192
:102DC000CF910895BF92CF92DF92EF92FF920F932F
:102DD0001F93CF93DF9300D000D0CDB7DEB7F82E8E
:102DE0002FE0281740F08FEF93E00E94AD2E06EA07
:102DF00010E08823D1F00F900F900F900F90DF918B
:102E0000CF911F910F91FF90EF90DF90CF90BF90E7
:102E10000895011544E0140771F3C8010E94AD2E16
:102E2000811101C0FA940F5F1F4FF110F2CF198288
:102E30001A821B821C82BB24BA9478015FEFE51AC8
:102E4000F50AC8010E94AD2E89831A82882399F25F
:102E5000813009F047C0680182E0C80ED11CC7016B
:102E60000E94AD2EE82E8A83882329F2C6010E9493
:102E7000AD2EF82E8FEF8E0D833068F46801E3E0FD
:102E8000CE0ED11CFB82FF2021F0CE0101960E94C4
:102E9000E1058601D2CFF4E0EF12FBCF680124E018
:102EA000C20ED11CC80103960E94AD2EFF2009F46A
:102EB000A2CF882309F49FCF8150990BB89E90012F
:102EC000B99E300D11244F2D4150550BCA01820F70
:102ED000931F0197F0F2EFE9FFE03197F1F700C09F
:102EE0000000F7CFCE0101960E94E1056701D1CF26
:102EF0000F931F93CF93DF93C42FD22FFC018281B6
:102F00008823C9F0409327020E94B225909326029D
:102F10008093250280E28C0F883008F050C0C77083
:102F200081E001C0880FCA95EAF7DF91CF911F9128
:102F30000F910C94851B10912702141335C08091BA
:102F40002502909126020E94CA25883C910560F5D1
:102F5000C0E2CD0F1D17B9F080E2810F883040F438
:102F6000177081E001C0880F1A95EAF70E948C1B48
:102F7000C83048F481E09D2F977001C0880F9A9562
:102F8000EAF70E94851B802F0E947D1BC830B8F491
:102F9000D77081E001C0880FDA95EAF7DF91CF9111
:102FA0001F910F910C948C1B80E28C0F883038F4A9
:102FB000C77081E001C0880FCA95EAF7EFCFDF91B3
:102FC000CF911F910F9108950F939C01CB01233F47
:102FD0004CE5340759F1A8F4283DFCE53F0701F121
:102FE000293D4CE53407D1F1273D3C4591F406E2FB
:102FF00021EE41EE67ED7CE50E94781780E00F91AD
:103000000895253FFCE53F07E9F0B0F0263F3C4539
:10301000F9F0FC018281882339F110922702EFCF69
:1030200007E225EE45EE68ED7CE5E6CF06E221EE0F
:1030300040EE63EF7CE5E0CF07E225EE44EE64EF7F
:103040007CE5DACF06E221EE42EE65EF7CE5D4CFF7
:1030500007E225EE46EE66EF7CE5CECF08E221E002
:1030600045EE69ED7CE5C8CF81E0C9CFCF93DF9312
:10307000EC01FB018281882309F419C1C230FCE50F
:10308000DF07C0F1C6319CE5D90730F09E012A5F09
:103090003C452930310570F50E9446249093C702C3
:1030A0008093C602C031ECE5DE0709F4CFC008F01A
:1030B0005BC0C8308CE5D80709F4B6C088F5C430C9
:1030C000ECE5DE0709F4A8C0C0F4C2308CE5D807EF
:1030D00009F49CC08091C6028260C330DC4509F4CB
:1030E00098C08091C6029091C7020E9454240E9409
:1030F000FD1D80E0DF91CF9108958091C60280612F
:10310000C630ECE5DE0709F484C08091C602886011
:10311000C730DC4508F47DC08091C602806279C06A
:10312000CC308CE5D80709F489C070F48091C602D0
:103130008C60CA30ECE5DE0709F46BC008F478C097
:103140008091C6028E7F65C0CE308CE5D80709F429
:1031500079C08091C6028B7FCF30DC4508F459C01E
:103160008091C6028F7E55C0CB3FECE5DE0709F4A7
:1031700057C030F5C3318CE5D80709F46FC078F437
:10318000C131ECE5DE0709F465C0C231DC4509F068
:10319000A8CF0E94FD1D8091C6028F773AC0C5312D
:1031A0008CE5D80709F462C008F476C08091C702A4
:1031B0008160CA3FDC4509F094CF8093C70291CF6C
:1031C000CF3FFCE5DF0709F44DC088F48091C702CA
:1031D0008D7FCD3F9CE5D90781F38091C7028E7F1B
:1031E000CE3FDC4550F38091C7028360E6CFC1300B
:1031F000FDE5DF0709F459C008F444C080E0C2309F
:10320000DD4509F06ECF0E94D9246BCF8091C602B4
:1032100081608093C60265CF8091C6028460F9CF39
:103220008091C7028260C9CF8091C6028064F1CFCD
:103230000E94FD1D8091C6028068EBCF8091C6027E
:103240008D7FE7CF8091C602877FE3CF8091C60252
:103250008F7DDFCF8091C6028F7BDBCF8091C6024E
:10326000837FD7CF8091C7028C7FA7CF8091C60282
:1032700082FB992790F921E0922790FB82F990FB3D
:1032800083F9C7CF8091C702982F909591708E7F58
:10329000892B90FB81F991CF0E94FD1D9091C60270
:1032A000892F97FB87F98058B4CF81E0ACCF81E0BC
:1032B00021CFCF93DF93EB0186319C4511F50E941E
:1032C0007C239A81992399F08A7A91E009F490E01D
:1032D00090932802811109C089E20E9457230E941D
:1032E000C82380E0DF91CF91089585E3F6CF8091E8
:1032F0002802811104C089E20E945E23F0CF85E399
:10330000FBCF81E0EFCF90932E0280932D020895A2
:10331000E0912D02F0912E02309721F00190F08182
:10332000E02D099480E00895E0912D02F0912E02A5
:10333000309721F00280F381E02D099408952091C7
:103340002B0230912C022817390771F090932C0230
:1033500080932B02E0912D02F0912E02309721F004
:103360000680F781E02D099408952091290230917B
:103370002A022817390771F090932A0280932902B4
:10338000E0912D02F0912E02309721F00084F1851A
:10339000E02D099408950E94BE2560933A0270932F
:1033A0003B0280933C0290933D02609336027093FF
:1033B0003702809338029093390208950E94BE2507
:1033C00060933A0270933B0280933C0290933D02DB
:1033D00060933202709333028093340290933502EB
:1033E000089585B7806885BF85B7806885BF0895D3
:1033F000089508950C94F81908950C94FC190E94EE
:10340000F1198BE294E20E940E260E94F9190C94A5
:10341000FA1981E008950C94091A089508950E94FC
:10342000A9250E9462080E94B6110E942C260E94C3
:103430007E0F0E941C110C94FD19AF92BF92DF9277
:10344000EF92FF920F931F93CF93DF93CDB7DEB729
:103450002A970FB6F894DEBF0FBECDBF0E940D1A9B
:103460000E940E1A0E948C0881110E94CB1980E0E4
:103470000E9458088C0180913002909131025C01C9
:10348000A026B1268017910709F45AC080919602B0
:1034900081FD0E946108D12CEE24E394F12CC5013A
:1034A0008E219F21892B09F445C00E940B1A882385
:1034B000A9F0DE821F820E211F2181E0012B09F479
:1034C00080E088870E94B2258160782F9A8789875B
:1034D0004E815F8168858A850E94C11A8091300281
:1034E00090913102E826F926F0923102E092300202
:1034F0000E94C20F0E942C1181110E94DE190E94AD
:10350000881990912F02891761F10E948819809380
:103510002F022A960FB6F894DEBF0FBECDBFDF9103
:10352000CF911F910F91FF90EF90DF90BF90AF90E0
:103530000C945806D394EE0CFF1C8EE0D812AFCF3B
:103540008FEF89838A831B820E94B2258160782F46
:103550009D838C8349815A816B818D810E94C11A20
:10356000C7CF2A960FB6F894DEBF0FBECDBFDF914E
:10357000CF911F910F91FF90EF90DF90BF90AF9090
:103580000895DF92EF92FF920F931F93CF93DF93F3
:10359000CDB7DEB72B970FB6F894DEBF0FBECDBF09
:1035A0007A878B87F42E052F162FE72ED82E6111E0
:1035B0000E949C231E821D827E2DEC82DD824F2D77
:1035C000502F612F8D2D9E812B960FB6F894DEBF64
:1035D0000FBECDBFDF91CF911F910F91FF90EF9064
:1035E000DF900C947320FC01808191810C9429233D
:1035F000CF93C82F882309F43FC08CEF8C0F813AFA
:10360000A0F46C2F8091190190911A010E94F0246E
:10361000882329F08C2F0E945E230E94C8238C2FC0
:103620000E945723CF910C94C82380E28C0F8830DE
:1036300048F4C77081E001C0880FCA95EAF70E947C
:103640007F23F0CFEBE5EC0FE33040F4F0E0EA52FB
:10365000FE4F808190E0CF910C949F19C85AC731DA
:1036600058F4EC2FF0E0EE0FFF1FE855FE4F80817D
:103670009181CF910C94B519CF910895882329F1A8
:103680009CEF980F913A20F40E945E230C94C8237B
:1036900090E2980F983050F4877091E001C0990F34
:1036A0008A95EAF7892F0E948523F0CF9BE5980F32
:1036B000933020F490E080E00C949F19885A873171
:1036C00020F490E080E00C94B51908951F93CF93F7
:1036D000DF93182FEB010E94F81A209731F4812F05
:1036E000DF91CF911F910C943E1B8FE99FE00197D2
:1036F000F1F700C000002197F0CF70E060E089335F
:1037000011F460E570E00C94661B882321F00E94A0
:103710007F230C94C8230895882321F00E948523D9
:103720000C94C8230895BF92CF92DF92EF92FF923C
:103730000F931F93CF93DF936C01D62FC72FFC01FC
:103740001281058102950F700E947523E82E88234F
:10375000A1F0E12E112389F08C2F807F803429F095
:1037600080E28D0FE12C883040F082E00E9413242B
:103770000E94752391E0E82EE926BC2EB2949FE0CA
:10378000B922EB2DF0E0EE5CF04D0C94F62D0C2FF1
:103790000F70C07F11F00295007F1123A9F0002364
:1037A00059F080E28D0F883010F0D11109C0802FC0
:1037B0000E947F230E94C8238D2F0E94F81A14C0F4
:1037C000802F0E948F23F6CF8D2F0E943E1B002357
:1037D00059F080E28D0F883010F0D1112CC0802F6D
:1037E0000E9485230E94C8232B2D2850330B2430A0
:1037F000310520F40E9488190E945806EE2009F431
:1038000093C10E94712380FD8FC1F60112820E9434
:103810006B230E94F721C6010E94B51D0E946B23F5
:10382000DF91CF911F910F91FF90EF90DF90CF909C
:10383000BF900C941822802F0E949523D3CFFC2F89
:10384000FF70FF2EC07FC03219F0F29480EFF82293
:10385000DD2369F0D13049F1112391F1002351F1B9
:10386000F601858180FFA8CF8F70858323C0112347
:1038700081F0011106C00E94AF238F290E94851B91
:10388000B3CF0130C1F70E94AF238F290E94B52327
:10389000ABCF011106C00E94BE238F2D0E948C1B4E
:1038A000A3CF013009F4A0CFF6CF112329F00630C1
:1038B00008F09ACF8F2DE2CF053008F095CFEDCFED
:1038C000002359F3D93349F4FFEF27EE33E0F150E9
:1038D00020403040E1F700C000008D2F0E943E1BC9
:1038E00083CF8C2F86958695837069F0813009F09F
:1038F0007BCF8D2F9C2F9370111102C090E080E040
:103900000E94B51971CF8D2F9C2F9370111102C099
:1039100090E080E00E949F1967CF8C2F837009F0A0
:1039200041C0111161CF4D2F429546954770440F0C
:10393000440F0D2F0F7010E030E020E0042E04C083
:10394000000F111F221F331F0A94D2F760E070E0AE
:10395000CB01D4FF0FC06FE070E080E090E004C0C6
:10396000660F771F881F991F4A95D2F7609570954B
:1039700080959095C695C695C370602B712B822B50
:10398000932BC23049F058F4C13019F00E94A9219C
:103990002BCF0E94972128CF0E94BB2125CF0E94C8
:1039A000952122CF8695112311F08C2F81708823C9
:1039B00009F41ACF4D2F429546954770440F440F96
:1039C0000D2F0F7010E030E020E0042E04C0000F37
:1039D000111F221F331F0A94D2F760E070E0CB0161
:1039E000D4FF0FC06FE070E080E090E004C0660F8D
:1039F000771F881F991F4A95D2F76095709580951B
:103A00009095C695C695C370602B712B822B932B16
:103A1000C23049F058F4C13019F00E946E22E4CE51
:103A20000E945C22E1CE0E948022DECE0E94D12143
:103A3000DBCECF70112329F08C2F0E94F7218D2F20
:103A40001DCF8D2F0E948C1B8C2F0E941822CCCE54
:103A5000D23F89F160F4D03FC9F0D13F29F1112361
:103A600009F442C00111A8CE8C2F8F7121C0D33F21
:103A700039F1D43FA1F7112369F1CF718C2F0E9446
:103A8000F72163E08C2F0E94FE23AECE112341F07C
:103A9000053008F0A9CE8C2F8F710E943B22A4CE56
:103AA000063008F0A1CEF7CF8C2F8F71112369F269
:103AB0000E94F72199CE8C2F8F711123C9F3C5CFA6
:103AC000112329F08C2F8F710E94E2218DCE0E944C
:103AD000DD218ACE81E00E941324023008F484CED6
:103AE00082E00E94132480CE002359F0D93309F0DC
:103AF000F4CE8FEF97EEE3E081509040E040E1F7A5
:103B0000EACE8C2F8F71A1CF4C2F4F706D2FC60135
:103B10000E9460060E940D2167CE4C2F4F706D2FC2
:103B2000C6010E94630660CEDF91CF911F910F9175
:103B3000FF90EF90DF90CF90BF9008950F931F9369
:103B4000CF93DF93EC01688179818A810E943323CE
:103B50008C010E9492220E949421B801CE01DF9133
:103B6000CF911F910F910C94931BCF93DF93EC0196
:103B70008B819C81892B29F08881998189238F3FB2
:103B800059F4DF91CF910895CE010E949E1DCE0180
:103B9000DF91CF910C943704CE010E94080581116A
:103BA000F3CF0E947523882361F38A81882349F328
:103BB00082E0DF91CF910C941324882321F00E949E
:103BC0008F230C94C8230895882321F00E94952305
:103BD0000C94C823089590E080E00E949F1990E023
:103BE00080E00E94B5190E949C230E94AC230C9493
:103BF000C8230E9465230C94EB1D0E948C230C9417
:103C0000F91DE92FE295EF70E250EE3070F4F0E02C
:103C1000EE5BF04D0C94F62D803F19F020F4883EB9
:103C200020F481E00895843FE1F380E00895883E28
:103C3000C0F3813FD1F7F5CF93FB882780F9089532
:103C40000E9429230C94011ECF93DF9300D000D053
:103C50000F92CDB7DEB70F900F900F900F900F908F
:103C6000DF91CF910895CF93DF9300D000D000D0A3
:103C7000CDB7DEB726960FB6F894DEBF0FBECDBF28
:103C8000DF91CF9108951F93CF93DF93C0913F02AF
:103C900016E0809140028C1304C0DF91CF911F91F8
:103CA0000895D0E01C9FF0011D9FF00D1124EF5BE3
:103CB000FD4F4081518162817381848195810E9491
:103CC000331E2196C770E5CF409171025091720268
:103CD00060917302709174028091750290917602E6
:103CE0000C94331E1F93CF93DF9380917602807FD5
:103CF000A9F480917302882389F080913F02C091DA
:103D000040026091710270917202A0917402B091B0
:103D10007502D62FD72316E0C81304C0DF91CF91C8
:103D20001F91089590E0109711F0DF3F19F401966C
:103D30008770F2CF189F9001199F300D1124F9015F
:103D4000EF5BFD4F41814713F2CF40814613EFCF28
:103D500042814111ECCF438154814A1B5B0B483CAB
:103D6000510528F7809176028F70806180937602EA
:103D7000F901EA5BFD4F80818F708061808381E76C
:103D800092E00E94B51DDF91CF911F910C94431ECC
:103D9000AF92BF92CF92DF92EF92FF920F931F9359
:103DA000CF93DF93CDB7DEB761970FB6F894DEBF40
:103DB0000FBECDBF8C0185E0F801DE011D9601909C
:103DC0000D928A95E1F7F80140815181E28081E707
:103DD000C82E82E0D82E6091740270917502611530
:103DE000710509F461C19091710220917202892FCD
:103DF00082238F3F09F458C1A380B480F0907302EE
:103E0000F501E61BF70BFF2009F4FCC08091760258
:103E1000382F307FE83CF10508F0B2C0311179C08D
:103E2000FE2C251323C0941321C0E1101FC08F70F6
:103E30008061809376020E94641EC6010E94B51DB7
:103E400080917602F80185838F2D61960FB6F894E4
:103E5000DEBF0FBECDBFDF91CF911F910F91FF90BD
:103E6000EF90DF90CF90BF90AF900895AB2829F0EE
:103E7000842F85238F3F09F033C180E0F82FF17044
:103E8000DF2E80FF3CC080913F022091400236E04F
:103E9000821315C04D875E878D859E850E942923DC
:103EA000292F22952F702230F0F0243018F59F70C2
:103EB000F1F0F8019581907FD1F4D12C1EC090E0F3
:103EC000389FF001399FF00D1124EF5BFD4F6181A8
:103ED000651306C06081641303C062816E110FC058
:103EE00001968770D5CF9F7011F0882331F3805EE3
:103EF000883018F3C8010E94B51DFD2CA5CFEE2017
:103F000009F4A2CF80917602816080937602F12C31
:103F10009BCF251306C0941304C0F801EE2009F4CA
:103F20008DC04D875E878D859E850E94201E8823CB
:103F300019F1EE2009F180917602803270F0209123
:103F400071023091720238872F831986BB86AA8648
:103F50008C87CE0107960E94B51D86E0F801A1E787
:103F6000B2E001900D928A95E1F70E94721E0E94C4
:103F7000641EFF24F39468CFC8010E94B51DF9CFD9
:103F8000311113C07A2DB98AA88A6E2D89890E94B1
:103F9000241E81E792E00E94B51D86E0F601119291
:103FA0008A95E9F70E94641EB2CF25130FC09413BF
:103FB0000DC0E1100BC0F8018583C8010E94B51D3A
:103FC00086E0F60111928A95E9F73ECF4D875E872C
:103FD0008D859E850E94201E882371F2EE2061F25D
:103FE00080917602803208F4B8CF2091710230912E
:103FF00072023A8329831B82BD82AC828E83CE01FA
:104000000196A9CFE83CF10508F041C0FE2CEE2056
:1040100009F4B2CF25132AC0941328C080917602E8
:1040200080FD1BC0982F907FC1F0F8018583903FE1
:1040300031F0982F907F905F8F70892B8583C80116
:104040000E94B51D86E0F801A1E7B2E001900D9253
:104050008A95E1F70E94641EF7CE86E0F801A1E799
:10406000B2E001900D928A95E1F7EECE4D875E8722
:104070008D859E850E94201E81116FCF80917602D2
:10408000816080937602C8010E94B51DDDCE7A2D35
:10409000B98AA88A6E2D89890E94241E86E0F601BD
:1040A00011928A95E9F7D6CFEE2009F465CF4D87B6
:1040B0005E878D859E850E94201EF82E882309F438
:1040C0005BCF86E0F801A1E7B2E001900D928A95FE
:1040D000E1F781E792E00E94F31A0E94721EBACFC4
:1040E00081E08E25CBCE1F93CF93DF93CDB7DEB784
:1040F0002C970FB6F894DEBF0FBECDBF4F83588705
:1041000069877A878B879C87CE0107960E94C81E95
:10411000882369F08A859B85892B39F04F815885E2
:10412000842F85238F3F09F071C016E05FC086E0C1
:10413000FE013796DE01119601900D928A95E1F706
:104140008A859B85892B89F38F81988589238F3F69
:1041500061F32091400230E0C901019687709927F0
:1041600040913F024817190671F40E94FD1D1092FC
:10417000400210923F0286E0E1E7F2E0DF011D928B
:104180008A95E9F7D2CF96E0929FD001939FB00D28
:104190001124AF5BBD4FFE01319601900D929A95AF
:1041A000E1F7809340020E94431EBFCF819FC00170
:1041B00011248F5B9D4F0E94C81E8823E9F0E09177
:1041C0003F021E9FF0011124EF5BFD4F40815181A2
:1041D00062817381848195810E94331E80913F02A8
:1041E00090E001968770992780933F0280913F026B
:1041F000909140028913DACF2C960FB6F894DEBF67
:104200000FBECDBFDF91CF911F91089569857A854B
:104210008B859C850E94331E88CFEF92FF920F936F
:104220001F93CF93DF938C01892B81F0F12CEE2427
:10423000E394E8012196F8018491843770F4843086
:1042400008F05FC08130B1F08230A1F1DF91CF91F1
:104250001F910F91FF90EF900895853709F44CC09E
:1042600008F43DC09CE7980F903780F78F770E9445
:104270003E1B49C00E5F1F4FFE01849190E2980FD4
:10428000983060F48770FE2D01C0FF0F8A95EAF721
:104290008F2F0E949F230E94C82302C00E94F81AF9
:1042A0008F2D815030F2EFE9FFE03197F1F700C038
:1042B0000000F7CF0E5F1F4FFE01849190E2980F30
:1042C000983050F48770FE2D01C0FF0F8A95EAF7F1
:1042D0008F2F0E94A523DFCF0E943E1BE1CF0E5FF0
:1042E0001F4FFE01C491C150D8F28FE99FE00197A2
:1042F000F1F700C00000F7CF0E5F1F4FFE01F490F2
:10430000CFCF0E94F81A8E01CBCF08950C9485214F
:104310000E948621609385027093860280938702B3
:10432000909388020C94EB1D08950C9488210F93B0
:104330001F9300918502109186022091870230918F
:104340008802602B712B822B932B1F910F910C9461
:1043500088210F931F93009185021091860220916E
:1043600087023091880260237123822393231F9157
:104370000F910C9488210F931F9300918502109147
:104380008602209187023091880260277127822758
:1043900093271F910F910C9488210C9485210C94E4
:1043A000CD210E94CF21609381027093820280937D
:1043B0008302909384020C94EB1D60E070E0CB01CB
:1043C0000C94D1210F931F9341E050E060E070E026
:1043D0008A019B0104C0000F111F221F331F8A9501
:1043E000D2F7C901B8011F910F910C94D1210F93FD
:1043F0001F9341E050E060E070E004C0440F551F9F
:10440000661F771F8A95D2F7809181029091820270
:10441000A0918302B09184028A019B01082B192B81
:104420002A2B3B2BC901B8011F910F910C94D1216C
:104430000F931F9341E050E060E070E004C0440F30
:10444000551F661F771F8A95D2F7CB01BA01609579
:104450007095809590950091810210918202209133
:1044600083023091840260237123822393231F915E
:104470000F910C94D1210F931F9341E050E060E025
:1044800070E004C0440F551F661F771F8A95D2F74E
:104490008091810290918202A0918302B091840266
:1044A0008A019B01082719272A273B27C901B80140
:1044B0001F910F910C94D1210F931F9300918102B2
:1044C000109182022091830230918402602B712B23
:1044D000822B932B1F910F910C94D1210F931F933B
:1044E0000091810210918202209183023091840216
:1044F00060237123822393231F910F910C94D12168
:104500000F931F93009181021091820220918302E8
:104510003091840260277127822793271F910F9182
:104520000C94D12108952EE0929F800D1124982F94
:10453000977041E001C0440F9A95EAF786958695F9
:10454000869595E0899FF0011124E958FD4F90E090
:1045500080E070E05191DF0111979B01082E02C0AD
:10456000369527950A94E2F7217021952527242373
:1045700025272C9301968530910561F708952EE04B
:10458000929F800D1124982F977086958695869519
:1045900025E0829FF0011124E958FD4F50E040E0F2
:1045A00080E0219130E0092E02C0369527950A94CB
:1045B000E2F721703327042E01C0220F0A94EAF794
:1045C000822B4F5F5F4F4530510559F70895BF92D9
:1045D000CF92DF92EF92FF920F931F93CF93DF93CF
:1045E0008C01C0908102D0908202E0908302F09012
:1045F00084028091850290918602A0918702B091F9
:104600008802C82AD92AEA2AFB2ACFE1D0E0BC2EA8
:10461000D701C6010C2E04C0B695A795979587952E
:104620000A94D2F780FD0EC0219788F7B12C8B2D0C
:10463000DF91CF911F910F91FF90EF90DF90CF907E
:10464000BF900895B8018C2F0E946C06019761F30A
:10465000EECFCF93DF93EC010E94E722BE01DF9102
:10466000CF910C946C061F93CF93DF93EB01909145
:104670003E02992331F0CB01DF91CF911F910C9431
:104680002923882379F0CB010E94E722182F682F75
:10469000CE010E949322BE01812FDF91CF911F9105
:1046A0000C946C06CB010E94BF22182FF4CF682F08
:1046B0008091190190911A010C942625682F809100
:1046C000190190911A010C9428258091190190915B
:1046D0001A010C942A2580918902859585958595E6
:1046E000089580918902877008959091890297704A
:1046F00081E009F480E008958091950208959091F9
:104700009502892B8093950208958095909195024A
:104710009823909395020895109295020895909190
:104720009402892B8093940208958095909194022D
:104730009823909394020895109294020895909172
:104740009302892B80939302089580959091930210
:104750009823909393020895109293020895809164
:104760008A02089508950C94B22390918A029817B2
:1047700021F080938A020C94B323089580918A02D9
:10478000882329F010928A0280E00C94B3230895C4
:10479000E0911901F0911A01809195028083E091D6
:1047A0001901F0911A01808190919402892B8083E4
:1047B000E0911901F0911A01808190919302892B67
:1047C000808390918A02992381F0E0911901F09100
:1047D0001A018081892B80838091190190911A019F
:1047E0000E94DE2481110E94BE23809119019091C4
:1047F0001A010C94941908950C94FB2398E0899F56
:1048000090011124622B609389020E94F72180910C
:1048100089028595859585950C94FC2310928902D3
:1048200080E00C94FC2390918902809589238093E9
:104830008902282F277071F4282F082E000C330BC3
:104840009217130639F08595859585950E94182253
:104850000C940E24089580E008956FEF7FEF90E0B0
:1048600080E00C94DF2E90E080E00E94BB2E21E0DF
:104870008B3E9E4F09F020E0822F089582E090E069
:104880000C94AD2E83E090E00C94AD2ECF9384E099
:1048900090E00E94AD2EC82F81E290E00E94AD2EE4
:1048A000982F8C2FCF910895CF93C92F682F84E034
:1048B00090E00E94C12E6C2F81E290E0CF910C9489
:1048C000C12EAB01BC018FE090E00C94D32EAB0164
:1048D000BC0183E190E00C94D32E60E070E0CB014A
:1048E0000C94672460E070E0CB010E9461240C947A
:1048F0006D246BEE7EEF90E080E00E94DF2E60E0A2
:1049000082E090E00E94C12E60E083E090E00E948F
:10491000C12E109285021092860210928702109288
:10492000880260E084E090E00E94C12E60E081E2B5
:1049300090E00E94C12E60E085E090E00E94C12ED0
:1049400060E086E090E00E94C12E6FEF87E090E08B
:104950000E94C12E40E050E0BA0188E090E00E9441
:10496000D32E60E08DE090E00E94C12E40E050E048
:10497000BA0188E190E00E94D32E60E087E190E0E8
:104980000E94C12E40E050E0BA018CE190E00E940C
:10499000D32E60E080E290E00E94C12E40E050E023
:1049A000BA0188E190E00E94D32E0C9472240C94FA
:1049B0007924682F8EE090E00C94C12E9C012E5F2C
:1049C0003F4FAC01485F5F4F80E02417350709F483
:1049D0000895F90191919F019923B9F38F5FF5CF64
:1049E000662349F0FC01329608962191261729F09A
:1049F000E817F907D1F780E0089581E008959C0158
:104A0000FC0132969FEF80E04191461751F09F3FA5
:104A100019F4411101C0982F8F5F8630A9F79F3F8D
:104A200009F40895290F311D97FD3A95F901628324
:104A30000895FC01329608962191261303C0DF01E8
:104A400011971C92E817F907B9F708950C94FF2401
:104A50000C941925029626E0FC0111922A95E9F79B
:104A60000895089508950C9432258091CC028430E5
:104A700059F10E94332580E00E9458060E94ED0EF5
:104A80001092970288E190E020E40FB6F894A89580
:104A9000809360000FBE2093600083B7817F8460A5
:104AA00083BF83B7816083BF7894889583B78E7FF7
:104AB00083BF0FB6F894A8958091600088618093B9
:104AC0006000109260000FBE089508950E94312585
:104AD0000E948C080E94652580E00E94580821E011
:104AE000892B09F420E0822F089508950C947525F0
:104AF0000E94FD1D0E9488190E9458060E94B90F4D
:104B00000C9476251F921FB61F9211248F939F93AA
:104B1000AF93BF9380919702811113C08091C2021D
:104B20009091C302A091C402B091C5024196A11D0B
:104B3000B11D8093C2029093C302A093C402B093AC
:104B4000C502BF91AF919F918F911F901FBE1F9083
:104B5000189582E084BD93E095BD9AEF97BD809350
:104B60006E0008952FB7F8948091C2029091C3020D
:104B7000A091C402B091C5022FBF08952FB7F89439
:104B80006091C2027091C3028091C4029091C502EB
:104B90002FBF08959C014FB7F8948091C202909165
:104BA000C302A091C402B091C5024FBF821B930BF8
:104BB000089578941F921FB61F9211248F939F938C
:104BC000AF93BF938091C2029091C302A091C4029F
:104BD000B091C5020196A11DB11D8093C2029093B0
:104BE000C302A093C402B093C502BF91AF919F913D
:104BF0008F911F901FBE1F90189587E797E790939E
:104C000001088093000888E19AE00FB6F894A8950F
:104C1000809360000FBE90936000FFCF9093E901F6
:104C20008093E80108950C94A3110E948C082FEF43
:104C300086E791E0215080409040E1F700C00000FD
:104C40000E948C0880E00E94580880FF04C00E94E7
:104C500013260C94FD2508950E943324811102C06F
:104C60000E94D7240E943E24809396020E944624EC
:104C70009093C7028093C6020E944224682F70E07E
:104C800090E080E00E949521609181027091820203
:104C900080918302909184020C94CF218091A00294
:104CA00008950895CF93DF9300D00F92CDB7DEB76C
:104CB0009091CC02943011F589837B836A83909321
:104CC000E9008FEF9091E800815095FD06C095EDC9
:104CD0009A95F1F700008111F5CF8091E80085FFEA
:104CE0000DC050E040E063E070E0CE0101960E940C
:104CF000B2288091E8008E778093E8000F900F90A3
:104D00000F90DF91CF910895BC0184E00C9452265E
:104D1000BC0183E00C945226CF93DF93EC0181E039
:104D20008093E9008FEF9091E800815095FD06C0D7
:104D300095ED9A95F1F700008111F5CF8091E8008B
:104D400085FF14C050E040E068E070E0CE010E94B2
:104D5000B2288091E8008E778093E80088E0FE0119
:104D6000A8E9B2E001900D928A95E1F7DF91CF9129
:104D70000895CF93FC01603221F58091CC028430FC
:104D800001F5C091E900CF702091EC00922F917055
:104D900020FD90E8C92B82E08093E9008091E80033
:104DA00080FF0CC050E040E060E270E0CF010E9464
:104DB000B2288091E8008E778093E800CF70C0938E
:104DC000E900CF9108958091CB02811109C00E9422
:104DD000912A0E94EE2A8091E20084608093E20092
:104DE00008951092CB02089508950895089542E021
:104DF00061EC81E00E940D2A42E261EC84E00E94B5
:104E00000D2A42E261EC82E00E940D2A42E260EC4F
:104E100083E00C940D2A8091CE02833009F461C0A6
:104E200030F48130D1F1823009F49DC008958A3088
:104E300009F489C08B3009F46FC0893009F050C083
:104E40008091CD02813209F04BC08091D1029091C6
:104E5000D202009719F0029709F042C08091E80051
:104E6000877F8093E8008091E80082FF35C09091B1
:104E7000F3008091F200029729F48091F1008B7F7A
:104E8000813021F48091F1008093A0028091E800AC
:104E90008B778093E8000C94412A8091CD02813A6F
:104EA000F9F48091E800877F8093E8008091D10237
:104EB0009091D202892B61F468E088E992E070E079
:104EC0000E9450298091E8008B778093E800089534
:104ED00060E090E080E0F3CF8091CC028111C3CFFD
:104EE00008958091CD02813AD9F78091D1029091B5
:104EF000D202892BA9F78091E800877F8093E80090
:104F00008091E80080FFFCCF809125018093F10023
:104F10008091E8008E77BDCF8091CD02813201F77C
:104F20008091D1029091D202892BD1F68091E80034
:104F3000877F8093E8000E94412A8091CF0280936E
:104F400025010C94FD1D8091CD02813249F680919E
:104F5000E800877F8093E8000E94412A8091D00278
:104F60008093A10208958091CD02813A09F0B8CFD3
:104F70008091E800877F8093E8008091E80080FFBF
:104F8000FCCF8091A102C2CFCDB7DEB7A0970FB6FC
:104F9000F894DEBF0FBECDBF84B7877F84BF0FB646
:104FA000F894A895809160008861809360001092C9
:104FB00060000FBE80E890E00FB6F8948093610027
:104FC000909361000FBE0E94FF190E94912A0E94D7
:104FD000EE2A8091E20084608093E20078940E943F
:104FE000772D0E940F1A8BE191E00E94831913E044
:104FF0008091CC028530C9F00E941D1A8091CC02AC
:105000008430D1F00E940D1A0E940E1AF1CF0E9436
:1050100035258091CA02882341F00E9466258823A5
:1050200021F00E949C280E94FD1D8091CC028530B9
:1050300071F30E947825E0CF1093E9008091E80099
:1050400082FFE0CF8091E80090E085FF09C050E04A
:1050500040E060E270E0CE0101960E94012991E0FB
:105060008091E8008B778093E800992359F260E201
:10507000CE0101960E945B12C5CF0C943F28292FC8
:1050800033272330310521F168F42130310509F44B
:1050900049C02230310509F44AC090E080E030E098
:1050A00020E029C02132310581F122323105A9F7F2
:1050B0006330710590F7FB01EE0FFF1FE452FE4FC6
:1050C0002081318167527E4FFB01808190E013C0C7
:1050D00099278130910599F0009741F08230910530
:1050E00089F00397D1F6EAE1F5E002C0ECE5F5E0DE
:1050F000849190E09F01FA01318320830895E8E4D0
:10510000F5E0F6CFE8E3F5E0F3CF6330710528F67C
:10511000660F771FFB01EE51FE4F2081318189E040
:1051200090E0E9CF82E190E02BEB35E0E4CF8BE536
:1051300090E020E635E0DFCF80E189BD82E189BDE6
:1051400009B400FEFDCF8091D8008F7D8093D800F8
:105150008091E00082608093E0008091E00081FD1A
:10516000FCCF0895AF92BF92CF92DF92FF920F9340
:105170001F93CF93DF936C01EB018A010E94602A99
:10518000F82E811123C00115110539F0F801808135
:105190009181C81BD90BC80ED91EB12CA12C209708
:1051A000A9F08091E80085FD22C08091E8008E770B
:1051B0008093E80001151105A1F0F801808191812B
:1051C000A80EB91EB182A08285E0F82E8F2DDF9146
:1051D000CF911F910F91FF90DF90CF90BF90AF9034
:1051E00008950E94602A8823D1F2F82EEFCFF601AD
:1051F00081916F018093F1002197FFEFAF1ABF0AF1
:10520000CECFAF92BF92CF92DF92FF920F931F93B8
:10521000CF93DF936C01EB018A010E94602AF82E84
:10522000811123C00115110539F0F80180819181A8
:10523000C81BD90BC80ED91EB12CA12C2097A9F0E0
:105240008091E80085FD22C08091E8008B778093F3
:10525000E80001151105A1F0F80180819181A80EE7
:10526000B91EB182A08285E0F82E8F2DDF91CF91FB
:105270001F910F91FF90DF90CF90BF90AF90089556
:105280000E94602A8823D1F2F82EEFCF8091F1009E
:10529000F60181936F012197FFEFAF1ABF0ACECFBE
:1052A000FC018091D3029091D40286179707A0F059
:1052B0006115710529F49091E8009E779093E800BC
:1052C00090E06115710551F4911108C08091E800DA
:1052D00082FF34C080E00895BC01F2CF8091CC02FF
:1052E0008823C1F18530C1F18091E80083FD30C091
:1052F0008091E80082FDEACF8091E80080FFE1CF55
:105300008091F3002091F200382F6115710519F09A
:105310002830310558F091E02830310509F090E04F
:105320002091E8002E772093E800CBCF81918093E5
:10533000F100615071092F5F3F4FE7CF8091CC02A0
:10534000882341F0853041F08091E80083FFBECF93
:1053500081E0089582E0089583E00895FC01809142
:10536000D3029091D40286179707A0F061157105BA
:1053700029F48091E8008E778093E80090E0611531
:10538000710551F4911108C08091E80082FF35C089
:1053900080E00895BC01F2CF8091CC028823C9F14E
:1053A0008530C9F18091E80083FD31C08091E8002B
:1053B00082FDEACF8091E80080FFE1CF8091F30089
:1053C0002091F200382F6115710519F02830310550
:1053D00058F091E02830310509F090E08091E80024
:1053E0008E778093E800CBCF84918093F100319643
:1053F000615071092F5F3F4FE6CF8091CC02882327
:1054000041F0853041F08091E80083FFBDCF81E01D
:10541000089582E0089583E00895982F973028F04A
:105420008F708093E90081E008959093E900242F24
:10543000762F50E0981731F07091EC002091ED003C
:105440005091F00021FD02C09F5FE8CF3091EB004A
:105450003E7F3093EB003091ED003D7F3093ED00C7
:105460003091EB0031603093EB007093EC002093AF
:10547000ED005093F0002091EE0027FDE5CF80E095
:1054800008958091CD0287FF13C08091E80082FFCC
:1054900006C08091E8008B778093E80004C080917B
:1054A000CC028111F2CF08958091CC028823D9F3E8
:1054B0008091E80080FFF8CF8091E8008E77ECCFF4
:1054C0002091E4003091E50095E6A9012091EC00DF
:1054D000822F817020FF06C08091E80080FF06C007
:1054E00080E008952091E80022FD1AC08091CC024E
:1054F000882389F0853089F08091EB0085FD0FC00D
:105500002091E4003091E50042175307F9F29150E1
:10551000E1F684E0089582E0089583E0089581E053
:1055200008950E94FF2A0E94072BE0EEF0E08081A0
:1055300081608083E8EDF0E080818F77808319BC03
:10554000A7EDB0E08C918E7F8C9380818F7E8083DD
:105550001092CB0208950F931F93CF93DF930E9475
:10556000FF2A0E94072BC8EDD0E088818F778883BF
:1055700088818068888388818F7D888319BC109298
:10558000CC021092C8021092CA021092C90200EE18
:1055900010E0F80180818B7F80838881816088831F
:1055A00042E060E080E00E940D2AE1EEF0E08081C0
:1055B0008E7F8083E2EEF0E0808181608083808155
:1055C00088608083F80180818E7F808388818061FC
:1055D0008883DF91CF911F910F910895E8EDF0E05E
:1055E00080818F7E8083E7EDF0E080818160808321
:1055F00084E082BF81E08093CB020C94AB2AE8ED7B
:10560000F0E080818E7F80831092E20008951092F6
:10561000DA001092E10008951F920F920FB60F92D8
:1056200011242F933F934F935F936F937F938F93A7
:105630009F93AF93BF93EF93FF938091E10082FF1D
:105640000BC08091E20082FF07C08091E1008B7F58
:105650008093E1000E94762D8091DA0080FF19C0CE
:105660008091D80080FF15C08091DA008E7F8093F2
:10567000DA008091D90080FF96C080E189BD82E187
:1056800089BD09B400FEFDCF81E08093CC020E9469
:10569000E3268091E10080FF19C08091E20080FF45
:1056A00015C08091E2008E7F8093E2008091E2003D
:1056B00080618093E2008091D80080628093D8005E
:1056C00019BC85E08093CC020E94F5268091E10010
:1056D00084FF2BC08091E20084FF27C080E189BD58
:1056E00082E189BD89B5982F917080FFFBCF8091B1
:1056F000D8008F7D8093D8008091E1008F7E8093C9
:10570000E1008091E2008F7E8093E2008091E200D0
:1057100081608093E2008091C802882309F449C027
:1057200084E08093CC020E94F6268091E10083FF02
:1057300029C08091E20083FF25C08091E100877F2E
:105740008093E10082E08093CC021092C8028091A5
:10575000E1008E7F8093E1008091E2008E7F809354
:10576000E2008091E20080618093E20042E060E02C
:1057700080E00E940D2A8091F00088608093F00004
:105780000E94F426FF91EF91BF91AF919F918F916D
:105790007F916F915F914F913F912F910F900FBE2D
:1057A0000F901F90189519BC1092CC020E94F12600
:1057B00070CF8091E30087FD93E09093CC02B3CF4C
:1057C0001F920F920FB60F9211242F933F934F9376
:1057D0005F936F937F938F939F93AF93BF93CF9379
:1057E000DF93EF93FF93D091E900DF708091EC009D
:1057F000C82FC17080FDC0E81092E9008091F000D0
:10580000877F8093F00078940E94242C1092E90006
:105810008091F00088608093F000CD2BCF70C09312
:10582000E900FF91EF91DF91CF91BF91AF919F91EF
:105830008F917F916F915F914F913F912F910F9039
:105840000FBE0F901F9018951F93CF93DF93CDB786
:10585000DEB7AA970FB6F894DEBF0FBECDBF8DECB2
:1058600092E02091F100FC012193CF01F2E0853D0F
:105870009F07B9F70E940B278091E80083FF1EC1A4
:105880008091CD029091CE029A3008F017C1E92F95
:10589000F0E0E05BF04D0C94F62D803899F0823802
:1058A00009F00CC18091D1028F70873008F006C1D9
:1058B0008093E9008091EB0085FB882780F91092A6
:1058C000E90006C08091C9029091CA0291118260DC
:1058D0009091E800977F9093E8008093F1001092F8
:1058E000F1008091E8008E77E5C0882309F4D3C0E9
:1058F000823009F0E3C08091CF028111D6C080913F
:10590000D1028F702FEF280F263008F0D7C0809378
:10591000E9002091EB0020FFC8C0933031F4809162
:10592000EB0080628093EB00C0C09091EB0090612F
:105930009093EB0021E030E001C0220F8A95EAF756
:105940002093EA001092EA008091EB008860EACF91
:105950008111B4C01091CF021F778091E30080784D
:10596000812B8093E3008091E800877F8093E8009B
:105970000E94412A8091E80080FFFCCF8091E300E3
:1059800080688093E30082E0111183E08093CC0271
:1059900095C08058823008F091C08091CF029091DC
:1059A000D0028C3D23E09207A1F583E08A838AE24E
:1059B00089834FB7F894DE01139620E03EE051E270
:1059C000E32FF0E050935700E49120FF03C0E295ED
:1059D000EF703F5FEF708E2F90E0EA30C0F0C79617
:1059E0008D939D932F5F243159F74FBF8091E8002D
:1059F000877F8093E8006AE270E0CE0101960E9402
:105A000050298091E8008B778093E80057C0C096BA
:105A1000E7CF6091D1027091D202AE014F5F5F4F2C
:105A20000E943D28BC01892B09F448C09091E800F0
:105A3000977F9093E80089819A810E94AE29E1CFF7
:105A40008038E1F58091E800877F8093E8008091BD
:105A5000C8028093F10045CF811130C09091CF02F0
:105A6000923060F58091E800877F8093E800909302
:105A7000C8020E94412A8091C802882311F084E064
:105A800005C08091E30087FDFACF81E08093CC02CE
:105A90000E94F72613C08091CF02813079F481E013
:105AA000933009F080E08093CA021092E90080915F
:105AB000E800877F8093E8000E94412A8091E800F7
:105AC00083FF0AC08091E800877F8093E80080917F
:105AD000EB0080628093EB00AA960FB6F894DEBFCD
